:020000040800F2
:10000000002000202501000871010008710100088E
:1000100000000000000000000000000000000000E0
:100020000000000000000000000000007101000856
:1000300000000000000000007101000871010008CC
:1000400071010008710100087101000871010008C8
:1000500071010008710100087101000871010008B8
:1000600071010008710100087101000871010008A8
:100070007101000871010008710100087101000898
:100080007101000871010008000000007101000802
:100090007101000871010008710100087101000878
:1000A0007101000871010008710100087101000868
:1000B000710100080000000071010008000000004C
:1000C0005FF808F180B582B000AF78600A00FB1CD1
:1000D0001A70FB1C1B78002B06D0094B084A51698B
:1000E0007A680A435A6106E0054B054A5269796805
:1000F000C9430A405A61C046BD4602B080BDC046F1
:100100000010024080B500AF01F07CFA01F0D4FA93
:1001100001F054FC01F00CFB01F070FC01F00EFB4F
:10012000FCE7C0460C488546002103E00B4B5B58BA
:10013000435004310A480B4B42189A42F6D30A4AFC
:1001400002E0002313600432084B9A42F9D301F015
:1001500099F8FFF7D7FFFEE7002000206C3B00086E
:10016000000000205C0600205C06002044080020FF
:10017000FEE7000080B582B000AF0200FB1D1A70E0
:10018000FB1D1B78024AD35C1800BD4602B080BD3F
:100190001438000880B582B000AF0200FB1D1A7051
:1001A000FB1D1B78024AD35C1800BD4602B080BD1F
:1001B0001439000880B584B000AF0023FB6030E044
:1001C000FB689A006D4B1968FB689B00CB18197887
:1001D0006B4B9954FB689B005A1C684B1968FB6871
:1001E0009B000133CB181978654B9954FB689B0031
:1001F0009A1C624B1968FB689B000233CB18197874
:100200005F4B9954FB689B00DA1C5C4B1968FB68D8
:100210009B000333CB181978594B9954FB68013371
:10022000FB60FB68032BCBD9A0E00023BB6010E090
:10023000FB68544A944663449A00BB68D318504AFA
:10024000D15C3A00BB68D3180A1C1A70BB68013332
:10025000BB60BB68032BEBD9FB680322134040D182
:100260003B001B787B603B005A783B001A703B00D8
:100270009A783B005A703B00DA783B009A707B68B2
:10028000DAB23B00DA703B001B781800FFF772FF10
:1002900003001A003B001A703B005B781800FFF760
:1002A00069FF03001A003B005A703B009B7818005E
:1002B000FFF760FF03001A003B009A703B00DB78F9
:1002C0001800FFF757FF03001A003B00DA703B00ED
:1002D0001A78FB689B082C49CB5C5340DAB23B0090
:1002E0001A70FB689B00FA6828498C4662449200A9
:1002F0002349895C3A0012784A40D1B2204AD1544D
:10030000FB689B000133FA6820498C4662449200E6
:1003100001321B49895C3A0052784A40D1B2184AEE
:10032000D154FB689B000233FA6818498C4662443A
:10033000920002321249895C3A0092784A40D1B266
:100340000F4AD154FB689B000333FA680F498C466F
:100350006244920003320A49895C3A00D2784A40EA
:10036000D1B2074AD154FB680133FB60FB682B2BE9
:1003700000D85AE7C046BD4604B080BD240700201F
:1003800074060020FFFFFF3F143A0008FCFFFF3F08
:1003900090B585B000AF0200FB1D1A700F23FB184B
:1003A00000221A703CE00E23FB1800221A702BE08A
:1003B0000E23FB181A780F23FB181B780E217918CF
:1003C00008780F21791809781A4C80002018405CB1
:1003D000F91D09788C000F217918097861188C00B3
:1003E0000E21791809786118134C615C4140C8B23C
:1003F000104992008A18011CD1540E23FB180E22BA
:10040000BA18127801321A700E23FB181B78032BCE
:10041000CED90F23FB181A780F23FB1801321A705C
:100420000F23FB181B78032BBDD9C046BD4605B072
:1004300090BDC0466406002074060020B0B582B0AE
:1004400000AFFB1D00221A7027E0BB1D00221A70AE
:100450001AE0FB1D1D78BB1D1C78FB1D1A78BB1D07
:100460001B78124992008A18D35C1800FFF782FEAD
:10047000030019000D4AAB00D3180A1C1A55BB1D06
:10048000BA1D127801321A70BB1D1B78032BE0D9FC
:10049000FB1DFA1D127801321A70FB1D1B78032B0D
:1004A000D3D9C046BD4602B0B0BDC04664060020E8
:1004B00080B582B000AFFB1D214A12791A70204B23
:1004C0005A791F4B1A711E4B9A791D4B5A711C4B4E
:1004D000DA791B4B9A711A4BFA1D1278DA71FB1DEF
:1004E000174A127A1A70164B9A7A154B1A72144BD5
:1004F000FA1D12789A72FB1D114A527A1A70104B2B
:10050000DA7A0F4B5A720E4BFA1D1278DA72FB1D13
:100510000B4A127B1A700A4BDA7B094B1A73084B91
:100520009A7B074BDA73064B5A7B054B9A73044B45
:10053000FA1D12785A73C046BD4602B080BDC0464F
:100540006406002080B582B000AF0200FB1D1A7067
:10055000FB1D1B785B005AB2FB1D1B78DB09DBB26D
:10056000191C0B1CDB185B18191CC800191C031C78
:10057000CB18DBB25BB253405BB2DBB21800BD46B6
:1005800002B080BD90B583B000AFFB1D00221A7091
:10059000BDE0FB1D1A78BB1D61498A5C1A70FB1D0A
:1005A0001B785F4AD25CFB1D1B785D49CB181B7919
:1005B0005340DAB2FB1D1B785949CB181B7A5340C4
:1005C000D9B2FB1D1B78564AD3181A7B7B1D4A40B3
:1005D0001A70FB1D1B78524AD15CFB1D1B78504AD8
:1005E000D3181A793B1D4A401A703C1D3B1D1B78DD
:1005F0001800FFF7A7FF03002370FB1D1B78FA1DEF
:1006000012784749895C381D7A1D0078127842407B
:10061000D2B24A40D1B2424AD154FB1D1B78404A63
:10062000D3181979FB1D1B783D4AD3181A7A3B1D44
:100630004A401A703C1D3B1D1B781800FFF782FFD3
:1006400003002370FB1D1B78FA1D127834498A18A9
:100650001179381D7A1D007812784240D2B24A4092
:10066000D1B22F4AD3180A1C1A71FB1D1B782C4AD1
:10067000D318197AFB1D1B78294AD3181A7B3B1D06
:100680004A401A703C1D3B1D1B781800FFF75AFFAB
:1006900003002370FB1D1B78FA1D127820498A186D
:1006A000117A381D7A1D007812784240D2B24A4041
:1006B000D1B21B4AD3180A1C1A72FB1D1B78184AA8
:1006C000D318197B3B1DBA1D12784A401A703C1D85
:1006D0003B1D1B781800FFF735FF03002370FB1D3F
:1006E0001B78FA1D12780E498A18117B381D7A1D65
:1006F000007812784240D2B24A40D1B2084AD318A8
:100700000A1C1A73FB1DFA1D127801321A70FB1DA8
:100710001B78032B00D83CE7C046BD4603B090BD14
:1007200064060020B0B582B000AF00237B608FE389
:10073000FB1CFE497A688A1812781A70BB1CFB49A8
:100740007A688A18043212781A707B1CF7497A6822
:100750008A18083212781A703B00F4497A688A18AD
:100760000C3212781A70FB1C1B781800FFF7EAFE97
:1007700003001800FFF7E6FE03001800FFF7E2FE93
:1007800003001800FFF7DEFEBB1C1B781800FFF704
:10079000D9FE03001800FFF7D5FEBB1C1B7818001C
:1007A000FFF7D0FE03001800FFF7CCFE030018008F
:1007B000FFF7C8FE03001800FFF7C4FE7B1C1B7880
:1007C0001800FFF7BFFE7B1C1B781800FFF7BAFE6E
:1007D00003001800FFF7B6FE03001800FFF7B2FE93
:1007E00003001800FFF7AEFE3B001B781800FFF770
:1007F000A9FE3B001B781800FFF7A4FE03001800B9
:10080000FFF7A0FE3B001B781800FFF79BFE0300DC
:100810001800FFF797FE03001800FFF793FE030090
:100820001800FFF78FFEFB1C1B781800FFF78AFEED
:1008300003001C00FB1C1B781800FFF783FE03005D
:100840001800FFF77FFE03006340DCB2FB1C1B783F
:100850001800FFF777FE03001800FFF773FE030090
:100860001800FFF76FFE03006340DCB2BB1C1B786F
:100870001800FFF767FE03001A00BB1C1B785340EB
:10088000DDB2BB1C1B781800FFF75CFE03001800EC
:10089000FFF758FE03001800FFF754FE03006B40FB
:1008A000DBB26340DCB27B1C1B781800FFF74AFE0A
:1008B00003001800FFF746FE03001A007B1C1B789C
:1008C0005340DDB27B1C1B781800FFF73BFE030092
:1008D0001800FFF737FE03001800FFF733FE030090
:1008E0006B40DBB26340DCB23B001B781800FFF7C3
:1008F00029FE03001800FFF725FE03001800FFF78C
:1009000021FE03001A003B001B785340DBB263401A
:10091000D9B2864A7B68D3180A1C1A70FB1C1B7854
:100920001800FFF70FFEFB1C1B781800FFF70AFEEC
:1009300003001800FFF706FEFB1C1B781800FFF7EA
:1009400001FE03001800FFF7FDFD03001800FFF78C
:10095000F9FD03001800FFF7F5FDBB1C1B7818001C
:10096000FFF7F0FD03001800FFF7ECFD030018008F
:10097000FFF7E8FD03001800FFF7E4FD7B1C1B7880
:100980001800FFF7DFFD03001800FFF7DBFD7B1CFD
:100990001B781800FFF7D6FD03001800FFF7D2FD03
:1009A00003001800FFF7CEFD03001800FFF7CAFD93
:1009B0003B001B781800FFF7C5FD3B001B781800B3
:1009C000FFF7C0FD03001800FFF7BCFD030018008F
:1009D000FFF7B8FD03001800FFF7B4FDFB1C1B7800
:1009E0001800FFF7AFFD03001800FFF7ABFD030091
:1009F0001800FFF7A7FD03001A00FB1C1B785340EB
:100A0000DCB2BB1C1B781800FFF79CFD03001D0027
:100A1000BB1C1B781800FFF795FD03001800FFF7BB
:100A200091FD03006B40DDB2BB1C1B781800FFF783
:100A300089FD03001800FFF785FD03001800FFF78C
:100A400081FD03006B40DBB26340DCB27B1C1B7892
:100A50001800FFF777FD03001A007B1C1B7853403A
:100A6000DDB27B1C1B781800FFF76CFD030018003B
:100A7000FFF768FD03001800FFF764FD03006B40FB
:100A8000DBB26340DCB23B001B781800FFF75AFD75
:100A900003001800FFF756FD03001A003B001B7807
:100AA0005340DDB23B001B781800FFF74BFD0300FD
:100AB0001800FFF747FD03001800FFF743FD030090
:100AC0006B40DBB26340D9B2184A7B68D318043359
:100AD0000A1C1A70FB1C1B781800FFF733FDFB1C67
:100AE0001B781800FFF72EFD03001800FFF72AFD02
:100AF00003001800FFF726FD03001800FFF722FD92
:100B0000BB1C1B781800FFF71DFDBB1C1B781800D1
:100B1000FFF718FD03001800FFF714FDBB1C1B783E
:100B20001800FFF70FFD0300180001E06406002025
:100B3000FFF708FD03001800FFF704FD030018008D
:100B4000FFF700FD7B1C1B781800FFF7FBFC030080
:100B50001800FFF7F7FC03001800FFF7F3FC030091
:100B60001800FFF7EFFC3B001B781800FFF7EAFCCA
:100B700003001800FFF7E6FC3B001B781800FFF7A6
:100B8000E1FC03001800FFF7DDFC03001800FFF78D
:100B9000D9FC03001800FFF7D5FCFB1C1B781800DC
:100BA000FFF7D0FC03001800FFF7CCFC03001A008D
:100BB000FB1C1B785340DCB2FB1C1B781800FFF7B2
:100BC000C1FC03001800FFF7BDFC03001800FFF78D
:100BD000B9FC03006340DCB2BB1C1B781800FFF7B4
:100BE000B1FC03001800FFF7ADFC03001800FFF78D
:100BF000A9FC03001A00BB1C1B785340DBB2634006
:100C0000DCB27B1C1B781800FFF79CFC03001D0066
:100C10007B1C1B781800FFF795FC03001800FFF7FA
:100C200091FC03006B40DDB27B1C1B781800FFF7C2
:100C300089FC03001800FFF785FC03001800FFF78C
:100C400081FC03006B40DBB26340DCB23B001B78ED
:100C50001800FFF777FC03001A003B001B78534095
:100C6000DDB23B001B781800FFF76CFC0300180096
:100C7000FFF768FC03001800FFF764FC03006B40FB
:100C8000DBB26340D9B2764A7B68D31808330A1CBA
:100C90001A70FB1C1B781800FFF754FC03001800A7
:100CA000FFF750FCFB1C1B781800FFF74BFC030000
:100CB0001800FFF747FC03001800FFF743FC030090
:100CC0001800FFF73FFCBB1C1B781800FFF73AFC2D
:100CD000BB1C1B781800FFF735FC03001800FFF75A
:100CE00031FC03001800FFF72DFC03001800FFF78C
:100CF00029FC7B1C1B781800FFF724FC7B1C1B784D
:100D00001800FFF71FFC03001800FFF71BFC7B1CFB
:100D10001B781800FFF716FC03001800FFF712FC01
:100D200003001800FFF70EFC03001800FFF70AFC91
:100D30003B001B781800FFF705FC03001800FFF7C5
:100D400001FC03001800FFF7FDFB03001800FFF78C
:100D5000F9FBFB1C1B781800FFF7F4FB03001A00DB
:100D6000FB1C1B785340DCB2FB1C1B781800FFF700
:100D7000E9FB03001800FFF7E5FB03001800FFF78D
:100D8000E1FB03006340DCB2BB1C1B781800FFF7DB
:100D9000D9FB03001800FFF7D5FB03001A00BB1CAA
:100DA0001B785340DDB2BB1C1B781800FFF7CAFB51
:100DB00003001800FFF7C6FB03001800FFF7C2FB93
:100DC00003006B40DBB26340DCB27B1C1B78180075
:100DD000FFF7B8FB03001800FFF7B4FB030018008F
:100DE000FFF7B0FB03001A007B1C1B785340DBB2FB
:100DF0006340DCB23B001B781800FFF7A3FB030045
:100E00001D003B001B781800FFF79CFB0300180037
:100E1000FFF798FB03006B40DDB23B001B78180026
:100E2000FFF790FB03001800FFF78CFB030018008E
:100E3000FFF788FB03006B40DBB26340D9B2084A7E
:100E40007B68D3180C330A1C1A707B6801337B60F3
:100E50007B68032B00DC6BE4C046BD4602B0B0BD2E
:100E600064060020B0B582B000AFFB1D00221A70EE
:100E700027E0BB1D00221A701AE0FB1D1D78BB1D68
:100E80001C78FB1D1A78BB1D1B78124992008A182A
:100E9000D35C1800FFF77EF9030019000D4AAB0080
:100EA000D3180A1C1A55BB1D1A78BB1D01321A70C3
:100EB000BB1D1B78032BE0D9FB1D1A78FB1D0132EB
:100EC0001A70FB1D1B78032BD3D9C046BD4602B058
:100ED000B0BDC0466406002080B582B000AFFB1DE7
:100EE000214AD2791A70204B9A791F4BDA711E4B26
:100EF0005A791D4B9A711C4B1A791B4B5A711A4B1C
:100F0000FA1D12781A71FB1D174A127A1A70164BC5
:100F10009A7A154B1A72144BFA1D12789A72FB1DAD
:100F2000114A527A1A70104BDA7A0F4B5A720E4BE2
:100F3000FA1D1278DA72FB1D0B4A127B1A700A4BEB
:100F40005A7B094B1A73084B9A7B074B5A73064B13
:100F5000DA7B054B9A73044BFA1D1278DA73C0469C
:100F6000BD4602B080BDC0466406002090B583B087
:100F700000AF7B1D00221A70FB1D00221A7024E0B6
:100F8000BB1D00221A7017E0BB1D1878FB1D1A78D4
:100F9000394B1B68F91D09788C00B91D0978611857
:100FA0005B181C7835498300CB18211C9954BB1D54
:100FB000BA1D127801321A70BB1D1B78032BE3D9BE
:100FC000FB1DFA1D127801321A70FB1D1B78032BD2
:100FD000D6D90020FFF7DCF97B1D01221A700FE043
:100FE000FFF72CFAFFF764FAFFF7CCFA7B1D1B78AA
:100FF0001800FFF7CDF97B1D7A1D127801321A70A7
:101000007B1D1B78092BEBD9FFF718FAFFF750FA75
:101010000A20FFF7BDF9FB1D00221A7023E0BB1D5B
:1010200000221A7016E0164B1B68FA1D1278910008
:10103000BA1D12788A189B18BA1D1178FA1D1278F9
:101040000E48890041188A5C1A70BB1DBA1D1278BF
:1010500001321A70BB1D1B78032BE4D9FB1DFA1D4E
:10106000127801321A70FB1D1B78032BD7D9C046AA
:10107000BD4603B090BDC0465C060020640600205B
:101080006006002090B583B000AF7B1D00221A706F
:10109000FB1D00221A7024E0BB1D00221A7017E00D
:1010A000BB1D1878FB1D1A78394B1B68F91D097890
:1010B0008C00B91D097861185B181C7835498300CC
:1010C000CB18211C9954BB1D1A78BB1D01321A7014
:1010D000BB1D1B78032BE3D9FB1D1A78FB1D0132C6
:1010E0001A70FB1D1B78032BD6D90A20FFF750F985
:1010F0007B1D09221A700FE0FFF7EEFEFFF7B2FE2C
:101100007B1D1B781800FFF743F9FFF70BFB7B1DD6
:101110001A787B1D013A1A707B1D1B78002BEBD1CE
:10112000FFF7DAFEFFF79EFE0020FFF731F9FB1D07
:1011300000221A7023E0BB1D00221A7016E0164B25
:101140001B68FA1D12789100BA1D12788A189B1834
:10115000BA1D1178FA1D12780E48890041188A5C70
:101160001A70BB1D1A78BB1D01321A70BB1D1B788B
:10117000032BE4D9FB1D1A78FB1D01321A70FB1DED
:101180001B78032BD7D9C046BD4603B090BDC046DF
:101190005C060020640600206006002080B586B052
:1011A00000AFF860B9607A6002F0EEFA0200FA234C
:1011B000D900100002F0A4FA0B001A001423FB1847
:1011C0001A8006E01623FB181A881623FB18013232
:1011D0001A801623FA181423FB1812881B889A42C7
:1011E000F0D3084BBA681A60074BFA681A60074BCD
:1011F0007A681A60FEF7DEFFFFF7B8FEC046BD460C
:1012000006B080BD240700205C0600206006002098
:1012100080B586B000AFF860B9607A6002F0B4FAC9
:101220000200FA23D900100002F06AFA0B001A003B
:101230001423FB181A8006E01623FB181A881623BD
:10124000FB1801321A801623FA181423FB1812888F
:101250001B889A42F0D3084BBA681A60074BFA68A9
:101260001A60074B7A681A60FEF7A4FFFFF70AFFBF
:10127000C046BD4606B080BD240700205C060020A5
:101280006006002080B500AF1B4B1B4A126801218D
:101290000A431A60184B184A526818490A405A60A3
:1012A000154B154A126816490A401A60124B124A29
:1012B000126814490A401A600F4B0F4A52681249CB
:1012C0000A405A600C4B0C4AD26A0F218A43DA62F8
:1012D000094B094A126B0D490A401A63064B064A2C
:1012E000526B01218A435A63034B00229A6000F03B
:1012F0000FF8C046BD4680BD001002400CB8FFF894
:10130000FFFFF6FEFFFFFBFFFFFFC0FFACFEFFFF8E
:1013100080B582B000AF00237B6000233B60314B7F
:10132000304A1268802149020A431A602D4B1A681C
:1013300080239B0213403B607B6801337B603B68EA
:10134000002B04D17A68A023DB019A42EED1254B11
:101350001A6880239B02134002D001233B6001E006
:1013600000233B603B68012B38D11F4B11221A60D0
:101370001C4B1C4A52685A601A4B1A4A52685A60EF
:10138000184B184A526819490A405A60154B154AB9
:101390005268882149030A435A60124B114A126865
:1013A000802149040A431A60C0460E4B1A68802304
:1013B0009B041340F9D00B4B0A4A526803218A431D
:1013C0005A60084B074A526802210A435A60C046D5
:1013D000044B5B680C221340082BF9D1C046BD4674
:1013E00002B080BD0010024000200240FFFFC0FF9D
:1013F00080B586B000AF7860396000237B61002340
:101400003B610023FB6000237B617CE001227B6960
:101410009A4013003B613B681B683A691340FB60CC
:10142000FA683B699A426BD13B681B79012B03D068
:101430003B681B79022B34D17B689B687A69520028
:10144000032191400A00D2431A407B689A607B686E
:101450009A683B685B7919007B695B0099400B00D7
:101460001A437B689A607B689B889BB27A6992B2C8
:10147000110001228A4092B2D24392B213409AB232
:101480007B689A807B689B889AB23B689B7919003D
:101490007B699BB299400B009BB213439AB27B6865
:1014A0009A807B681B687A695200032191400A0088
:1014B000D2431A407B681A607B681A683B681B79C4
:1014C00019007B695B0099400B001A437B681A6026
:1014D0007B68DB687A6992B25200032191400A006E
:1014E000D2431A407B68DA607B68DA683B68DB7954
:1014F00019007B695B0099400B001A437B68DA6036
:101500007B6901337B617B690F2B00D87EE7C04686
:10151000BD4606B080BDC04680B582B000AF7860E1
:101520007B68094A1A607B6800221A717B68012275
:101530005A717B6800229A717B680022DA71C0467A
:10154000BD4602B080BDC046FFFF000080B582B03E
:1015500000AF786008001100BB1C021C1A807B1CC5
:101560000A1C1A707B1C1B78002B04D0BB1C1A8829
:101570007B689A6103E07B68BA1C12881A85C046B2
:10158000BD4602B080BDC04680B582B000AF786075
:101590000A00BB1C1A80BB1C1B88DB05DB0D9AB242
:1015A0007B681A85C046BD4602B080BD80B582B05A
:1015B00000AF78607B689B8C9BB2DB05DB0D9BB238
:1015C0001800BD4602B080BD80B584B000AF786021
:1015D00039600F23FB1800221A707B68DB693A68B8
:1015E000134004D00F23FB1801221A7003E00F23CD
:1015F000FB1800221A700F23FB181B781800BD4639
:1016000004B080BD80B500AFC046BD4680BDC046B9
:1016100080B500AF044B180000F018F8024B1B789F
:101620001800BD4680BDC0462807002080B582B0A6
:1016300000AF0200FB1D1A70FB1D1B78180000F0A4
:101640001FF8C046BD4602B080BDC04680B582B01E
:1016500000AF786007E0094B1800FFF7A7FF030011
:10166000DAB27B681A70054B20211800FFF7ACFF37
:10167000031EF0D0C046BD4602B080BD004400400D
:1016800080B582B000AF0200FB1D1A7007E0FB1DA1
:101690001B789BB2074A19001000FFF775FF054B36
:1016A00080211800FFF790FF031EF0D0C046BD4612
:1016B00002B080BD0044004080B582B000AF8023FE
:1016C0009B0201211800FEF7FDFC3B001800FFF70C
:1016D00023FF3B00802212011A603B0001221A7195
:1016E0003A009023DB0511001800FFF781FEC04689
:1016F000BD4602B080BDC04680B500AF8023190151
:101700009023DB0501221800FFF720FFC046BD46ED
:1017100080BDC04680B500AF802319019023DB0552
:1017200000221800FFF712FFC046BD4680BDC0462C
:1017300080B500AFC046BD4680BDC04690B583B001
:1017400000AFFC1DFFF764FF03002370FB1D1B7837
:10175000AE2B2AD004DC442B09D0452B11D038E025
:10176000F12B2CD0F22B2FD0EA2B14D031E01E4BD2
:101770000821180000F0E6F81B4B180000F076F87E
:101780002DE0194B0821180000F0DCF8164B18006A
:1017900000F086F823E0144B1021180000F0D2F876
:1017A000114B180000F0B2F819E00F4B102118008F
:1017B00000F0C8F80C4B180000F08CF80FE00A4B52
:1017C000180000F03FF80AE0074B180000F010F88E
:1017D00005E0064B0821180000F0D2F8C046C046CC
:1017E000BD4603B090BDC046AC0700202C3B0008AE
:1017F00080B584B000AF7860FFF77EFF0023FB6008
:101800000EE0FB687A68D3181B785BB219000C4AAB
:10181000FB68D3181B78994206D1FB680133FB6043
:10182000FB68072BEDDD00E0C046FFF773FF7B6828
:101830000821180000F0A4F8C046BD4604B080BDE1
:101840000000002080B582B000AF7860FFF754FF41
:10185000054B0821180000F093F8FFF75BFFC04626
:10186000BD4602B080BDC046343B000880B582B0A2
:1018700000AF7860FFF740FF7968084B002218003E
:1018800000F06EF9FFF746FF7B680821180000F0B2
:1018900077F8C046BD4602B080BDC046243B000874
:1018A00080B582B000AF7860FFF726FF7968084BFB
:1018B0000122180000F054F97B680821180000F09C
:1018C0005FF8FFF727FFC046BD4602B080BDC046A7
:1018D000243B000880B582B000AF7860FFF70CFFB2
:1018E000084A09497B681800FFF758FC054B10218E
:1018F000180000F045F8FFF70DFFC046BD4602B0E6
:1019000080BDC0462C070020143B000880B582B083
:1019100000AF7860FFF7F0FE084A09497B681800BD
:10192000FFF776FC054B1021180000F029F8FFF7AF
:10193000F1FEC046BD4602B080BDC0462C07002067
:10194000143B000890B585B000AF786039607B68C3
:10195000002B11D00023FB6009E0FB687A68D418E3
:10196000FFF756FE03002370FB680133FB60FA6843
:101970003B689A42F1D300E0C046BD4605B090BD39
:1019800080B584B000AF786039607B68002B11D0DF
:101990000023FB6009E0FB687A68D3181B78180005
:1019A000FFF744FEFB680133FB60FA683B689A422C
:1019B000F1D300E0C046BD4604B080BD80B582B022
:1019C00000AF80231B0301211800FEF77BFB3B00C7
:1019D0001800FFF7A1FD3B00802252001A603B0077
:1019E00001221A713B00044A19001000FFF700FDA4
:1019F000C046BD4602B080BD0008004880B500AFBB
:101A000080235B00034801221900FFF79FFDC046B9
:101A1000BD4680BD0008004880B584B000AF786046
:101A20000A00FB1C1A700E23FB18FC221A700D23EF
:101A3000FB18FA1C1278D2081A700C23FB18FA1C37
:101A4000127807210A401A700E23FB181A780C230B
:101A5000FB181B781A410B23FB181A700E23FB1876
:101A60001A780C23FB181B780821CB1A9A400A23FA
:101A7000FB181A700D23FB181B787A68D3181B7893
:101A80000B22BA1812781340DBB21A000C23FB1891
:101A90001B789A400F23FB181A700A23FB181B7837
:101AA000002B1DD00D23FB181B7801337A68D31847
:101AB0001B780A22BA1812781340DBB219000C23E3
:101AC000FB181B780822D31A19410B005AB20F23B6
:101AD000FB181B785BB213435AB20F23FB181A7022
:101AE0000F23FB180F22BA18127892081A700F23CE
:101AF000FB181B781800BD4604B080BD80B586B0C9
:101B000000AFF860B960FB1D1A701723FB180022A4
:101B10001A701AE01723FB181B78FA68D3181722DB
:101B2000BA181278F9688A1811781722BA18127838
:101B3000B868821812784A40D2B21A701723FB187C
:101B40001A781723FB1801321A701723FA18FB1D95
:101B500012781B789A42DDD3C046BD4606B080BDE0
:101B6000B0B592B000AFF860B960FB1D1A702C23BD
:101B7000FA18664B1000190010231A0001F0C6FD78
:101B8000FB683B64BB68180000F09AFB3B6C1800D4
:101B900000F0A2FF4723FB1800221A70A8E0FB1DEB
:101BA0001B78002B0FD15A4B180001F077FB47230D
:101BB000FB181B782C22BA18D35C012B03D9544B89
:101BC000180001F06BFB1423FA18514B1100180098
:101BD00001F0AEF9FB1D1B78012B11D14C4B180005
:101BE00001F012FC4723FB181B780F22D31A2C227A
:101BF000BA18D35C012B03D9454B180001F004FC43
:101C00002423FA18434B1100180000F095FA2423FE
:101C1000F9181423FB1806221800FFF76FFF46235C
:101C2000FB1800221A702CE04623FB181C78462370
:101C3000FB181A78384B9200D5584623FB181B78AE
:101C40001A1C9218D318DB18DAB21423FB181100EF
:101C50001800FFF7E1FE0300EB181A781C23FB18AD
:101C60001A551C23FA184623FB181B78110018007C
:101C700000F056F84623FB181A784623FB18013269
:101C80001A704623FB181B78072BCDD94623FB1867
:101C900000221A7020E04623FB181A783F23FB1815
:101CA0001E498A5C1A704623FB181B784622BA1814
:101CB00012781849895C194AD1544623FB181B78BD
:101CC000144A3F2179180978D1544623FB181A7811
:101CD0004623FB1801321A704623FB181B78032B8E
:101CE000D9D94723FB181A784723FB1801321A70F9
:101CF0004723FB181B780F2B00D850E7BB68180050
:101D000000F096FCC046BD4612B0B0BD3C3B00089A
:101D100038080020400800200C0200203408002071
:101D200080B582B000AF02003960FB1D1A70FB1D48
:101D30001B78072B00D9F8E19A00DA4BD3181B68FF
:101D40009F46D94B5B785AB23B681B781B015BB24C
:101D50007F218B435BB253405BB2DAB2D24B5A70F5
:101D6000D14B9B785AB23B681B785B015BB27F21F9
:101D70008B4359B23B681B785BB2022003405BB2D5
:101D80000B435BB253405BB2DAB2C74B9A70C64B9F
:101D9000DB785AB23B681B785B005BB202210B40D8
:101DA0005BB253405BB2DAB2BF4BDA70BDE1BE4BFF
:101DB0001B785AB23B6801331B785B015BB2402150
:101DC0000B405BB253405BB2DAB2B74B1A70B64B02
:101DD0005B785AB23B6801331B785BB208210B4039
:101DE0005BB253405BB2DAB2AF4B5A70AE4B9B78EA
:101DF0005AB23B6801331B789B015BB240210B4018
:101E00005BB253405BB2DAB2A74B9A70A64BDB7859
:101E10005AB23B6801331B789B005BB210210B4028
:101E20005BB253405BB2DAB29F4BDA707DE19E4BFE
:101E30001B785AB23B6802331B789B005BB20421CB
:101E40000B405BB253405BB2DAB2974B1A70964BC1
:101E50005B785AB23B6802331B789B105BB201215E
:101E60000B405BB253405BB2DAB28F4B5A708E4B71
:101E70009B785AB23B6802331B78DB105BB20121BE
:101E80000B405BB253405BB2DAB2874B9A70864B21
:101E9000DB785AB23B6802331B785B005BB20421EB
:101EA0000B405BB253405BB2DAB27F4BDA703CE17D
:101EB0007D4B1B785AB23B6803331B78DB015BB266
:101EC00053405BB2DAB2784B1A70774B5B785AB2F8
:101ED0003B6803331B785B015BB240210B405BB274
:101EE00053405BB2DAB2704B5A706F4B9B785AB268
:101EF0003B6803331B789B005BB210210B405BB245
:101F000053405BB2DAB2684B9A70674BDB785AB2D7
:101F10003B6803331B78DB005BB240210B405BB2B4
:101F200053405BB2DAB2604BDA70FEE05E4B1B7876
:101F30005AB23B6804331B785B015BB220210B4033
:101F400059B23B6804331B78DB105BB201200340BD
:101F50005BB20B435BB253405BB2DAB2524B1A70C6
:101F6000514B5B785AB23B6804331B785BB2042157
:101F70000B405BB253405BB2DAB24B4B5A704A4BE8
:101F8000DB785AB23B6804331B789B015BB27F213C
:101F90008B435BB253405BB2DAB2434BDA70C4E0BE
:101FA000414B1B785AB23B6805331B785B005BB230
:101FB00010210B405BB253405BB2DAB23A4B1A705D
:101FC000394B5B785AB23B6805331B781B015BB217
:101FD00020210B405BB253405BB2DAB2324B5A70F5
:101FE000314B9B785AB23B6805331B785B015BB27F
:101FF00020210B405BB253405BB2DAB22A4B9A709D
:10200000294BDB785AB23B6805331B785B005BB227
:1020100008210B405BB253405BB2DAB2224BDA705C
:1020200083E0214B1B785AB23B6806331B785B0078
:102030005BB202210B405BB253405BB2DAB21A4B87
:102040001A70194B5B785AB23B6806331B789B00B9
:102050005BB210210B405BB253405BB2DAB2124B61
:102060005A70114B9B785AB23B6806331B785B0061
:102070005BB204210B405BB253405BB2DAB20A4B55
:102080009A70094BDB785AB23B6806331B78DB1039
:102090005BB201210B405BB253405BB2DAB2024B40
:1020A000DA7042E04C3B000834080020214B1B78DA
:1020B0005AB23B6807331B785BB208210B405BB216
:1020C00053405BB2DAB21B4B1A701A4B5B785AB2B0
:1020D0003B6807331B785BB202210B405BB2534075
:1020E0005BB2DAB2134B5A70124B9B785AB23B6810
:1020F00007331B78DB005BB208210B405BB2534017
:102100005BB2DAB20B4B9A700A4BDB785AB23B687F
:1021100007331B78DB005BB220210B405BB25340DE
:102120005BB2DAB2034BDA70C046C046BD4602B0BD
:1021300080BDC0463408002080B582B000AF786012
:1021400039607B6803331B78DB015AB27B681B78EC
:102150005B105BB27C210B405BB213435AB27B68CD
:102160001B78DB105BB203210B405BB213435BB205
:10217000DAB23B681A703B6801337A681278520110
:1021800051B27A6801321278D21052B21020024055
:1021900052B20A4351B27A681278D20052B2082081
:1021A000024052B20A4351B27A680132127852099F
:1021B000D2B252B20A4352B2D2B21A703B68023360
:1021C0007A6801321278D20052B23F218A4351B26A
:1021D0007A6801321278520052B23E20024052B266
:1021E0000A4351B27A6802321278D209D2B252B29C
:1021F0000A4352B2D2B21A703B6803337A68013292
:102200001278D20151B27A6802321278521052B268
:102210007C20024052B20A4351B27A6802321278EC
:10222000D21052B20320024052B20A4352B2D2B28A
:102230001A703B6804337A6802321278520151B244
:102240007A6803321278D21052B21020024052B291
:102250000A4351B27A6802321278D20052B2082090
:10226000024052B20A4351B27A68033212785209DC
:10227000D2B252B20A4352B2D2B21A703B6805339C
:102280007A6803321278D20052B23F218A4351B2A7
:102290007A6803321278520052B23E20024052B2A3
:1022A0000A4351B27A681278D209D2B252B20A43C2
:1022B00052B2D2B21A70C046BD4602B080BDC0460E
:1022C00080B584B000AF7860D74B0022DA70D64B6F
:1022D000DA78D54B9A70D44B9A78D34B5A70D24B4C
:1022E0005A78D14B1A70D04B1A78D04BDA70CF4B4A
:1022F000DA78CE4B9A70CD4B9A78CC4B5A70CB4B48
:102300005A78CA4B1A700F23FB1800221A7081E109
:102310000F23FB181B78012B35D8C44B1B785AB2FE
:102320000F23FB181B780721CB1A19007B685B1859
:102330001B781900402319400F23FB181B7801203C
:10234000C31A99400B005BB213435BB2DAB2B74BCE
:102350001A70B54BDB785AB20F23FB181B787968DB
:10236000CB181B781900022319400F23FB181B7888
:102370000120C31A19410B005BB213435BB2DAB2FE
:10238000A94BDA7032E0A94B1B785AB20F23FB1825
:102390001B780721CB1A19007B685B181B78190082
:1023A000402319400F23FB181B78013B19410B00F8
:1023B0005BB213435BB2DAB29C4B1A709A4BDB7878
:1023C0005AB20F23FB181B787968CB181B781900B9
:1023D000022319400F23FB181B78013B99400B0087
:1023E0005BB213435BB2DAB28F4BDA700F23FB1888
:1023F0001B78032B35D88D4B5B785AB20F23FB1813
:102400001B780721CB1A19007B685B181B78190011
:10241000102319400F23FB181B780320C31A99407F
:102420000B005BB213435BB2DAB2804B5A707E4B47
:102430009B785AB20F23FB181B787968CB181B784E
:102440001900082319400F23FB181B780320C31A17
:1024500019410B005BB213435BB2DAB2724B9A7054
:1024600032E0724B5B785AB20F23FB181B780721BE
:10247000CB1A19007B685B181B78190010231940D0
:102480000F23FB181B78033B19410B005BB213436E
:102490005BB2DAB2654B5A70634B9B785AB20F232A
:1024A000FB181B787968CB181B7819000823194092
:1024B0000F23FB181B78033B99400B005BB21343BF
:1024C0005BB2DAB2584B9A700F23FB181B78052BBE
:1024D00035D8564B9B785AB20F23FB181B7807212F
:1024E000CB1A19007B685B181B781900042319406C
:1024F0000F23FB181B780520C31A99400B005BB211
:1025000013435BB2DAB2494B9A70474B5B785AB2CD
:102510000F23FB181B787968CB181B781900202330
:1025200019400F23FB181B780520C31A19410B0013
:102530005BB213435BB2DAB23B4B5A7032E03B4BB7
:102540009B785AB20F23FB181B780721CB1A19006E
:102550007B685B181B781900042319400F23FB18B4
:102560001B78053B19410B005BB213435BB2DAB237
:102570002E4B9A702C4B5B785AB20F23FB181B78AA
:102580007968CB181B781900202319400F23FB18FA
:102590001B78053B99400B005BB213435BB2DAB288
:1025A000214B5A70214BDB785AB20F23FB181B7852
:1025B0007968CB181B781900012319400F23FB18E9
:1025C0001B7899400B005BB213435BB2DAB2174B36
:1025D000DA70154B1B785AB20F23FB181B780721B2
:1025E000CB1A19007B685B181B78190080231940EF
:1025F0000F23FB181B7819410B005BB213435BB22E
:10260000DAB2094B1A700F23FB181A780F23FB1844
:1026100001321A700F23FB181B78072B00D877E6BE
:10262000C046BD4604B080BD4008002034080020EC
:1026300080B582B000AF7860FE4B1B78DB015AB2E8
:10264000FD4B1B789B015BB240210B405BB21343F7
:102650005AB2F84B5B785B015BB220210B405BB256
:1026600013435AB2F44B5B781B015BB210210B4051
:102670005BB213435AB2EF4B9B78DB005BB208218D
:102680000B405BB213435AB2EB4B9B789B005BB29F
:1026900004210B405BB213435AB2E64BDB785B007C
:1026A0005BB202210B405BB213435AB2E24BDB78C0
:1026B0005BB201210B405BB213435BB2DAB27B68C1
:1026C0001A707B680133DB4A1278920152B27F2183
:1026D0008A4351B2D84A1278520152B24020024085
:1026E00052B20A4351B2D34A5278120152B2202058
:1026F000024052B20A4351B2CF4A5278D20052B28B
:102700001020024052B20A4351B2CA4A9278920053
:1027100052B20820024052B20A4351B2C64A9278DD
:10272000520052B20420024052B20A4351B2C14A8E
:10273000D27852B20220024052B20A4351B2BE4A8B
:10274000D278521052B20120024052B20A4352B221
:10275000D2B21A707B680233B64A1278520152B272
:102760007F218A4351B2B44A1278120152B24020FA
:10277000024052B20A4351B2AE4A5278D20052B22B
:102780002020024052B20A4351B2AB4A5278920022
:1027900052B21020024052B20A4351B2A54A927876
:1027A000520052B20820024052B20A4351B2A24A29
:1027B000927852B20420024052B20A4351B29D4A6A
:1027C000D278521052B20220024052B20A4351B2A1
:1027D000994AD278921052B20120024052B20A4372
:1027E00052B2D2B21A707B680333924A1278120145
:1027F00052B27F218A4351B28F4A1278D20052B22C
:102800004020024052B20A4351B28A4A52789200A2
:1028100052B22020024052B20A4351B2864A527844
:10282000520052B21020024052B20A4351B2814AC1
:10283000927852B20820024052B20A4351B27E4A04
:102840009278521052B20420024052B20A4351B25E
:10285000784AD278921052B20220024052B20A4311
:1028600051B2754AD278D21052B20120024052B20F
:102870000A4352B2D2B21A707B6804336D4A12789E
:10288000D20052B27F218A4351B26B4A1278920031
:1028900052B24020024052B20A4351B2654A5278C5
:1028A000520052B22020024052B20A4351B2624A50
:1028B000527852B21020024052B20A4351B25D4ADD
:1028C0009278521052B20820024052B20A4351B2DA
:1028D000594A9278921052B20420024052B20A43EE
:1028E00051B2544AD278D21052B20220024052B2AF
:1028F0000A4351B2504AD278121152B2012002401A
:1029000052B20A4352B2D2B21A707B680533494AB6
:102910001278920052B27F218A4351B2464A12780D
:10292000520052B24020024052B20A4351B2414AD0
:10293000527852B22020024052B20A4351B23E4A6B
:102940005278521052B21020024052B20A4351B291
:10295000384A9278921052B20820024052B20A438A
:1029600051B2354A9278D21052B20420024052B28B
:102970000A4351B22F4AD278121152B202200240B9
:1029800052B20A4351B22C4AD278521152B20120AB
:10299000024052B20A4352B2D2B21A707B68063376
:1029A000244A1278520052B27F218A4351B2224AFD
:1029B000127852B24020024052B20A4351B21D4A2C
:1029C0005278521052B22020024052B20A4351B201
:1029D000194A5278921052B21020024052B20A4361
:1029E00051B2144A9278D21052B20820024052B228
:1029F0000A4351B2104A9278121152B20420024096
:102A000052B20A4351B20B4AD278521152B202204A
:102A1000024052B20A4351B2074AD278921152B2DE
:102A20000120024052B20A4352B2D2B21A707B68FD
:102A300004E0C04634080020400800200733244A40
:102A4000127852B27F218A4351B2224A1278521030
:102A500052B24020024052B20A4351B21C4A52784C
:102A6000921052B22020024052B20A4351B2194A87
:102A70005278D21052B21020024052B20A4351B2E0
:102A8000134A9278121152B20820024052B20A43FD
:102A900051B2104A9278521152B20420024052B2FE
:102AA0000A4351B20A4AD278921152B2022002402D
:102AB00052B20A4351B2074AD278D209D2B252B2C4
:102AC0000A4352B2D2B21A70C046BD4602B080BDAF
:102AD000340800204008002080B582B000AF786044
:102AE0007B6807331B785BB27F2293435AB27B68C3
:102AF00006331B785B105BB240210B405BB2134383
:102B00005AB27B6805331B789B105BB220210B40C7
:102B10005BB213435AB27B6804331B78DB105BB2A1
:102B200010210B405BB213435AB27B6803331B780E
:102B30001B115BB208210B405BB213435AB27B6896
:102B400002331B785B115BB204210B405BB2134371
:102B50005AB27B6801331B789B115BB202210B4098
:102B60005BB213435AB27B681B78DB09DBB25BB202
:102B700013435BB2DAB2ED4B1A707B6807331B78F4
:102B80005B005BB27F2293435AB27B6806331B78AB
:102B90005BB240210B405BB213435AB27B680533F2
:102BA0001B785B105BB220210B405BB213435AB21F
:102BB0007B6804331B789B105BB210210B405BB227
:102BC00013435AB27B6803331B78DB105BB20821D6
:102BD0000B405BB213435AB27B6802331B781B1164
:102BE0005BB204210B405BB213435AB27B680133E2
:102BF0001B785B115BB202210B405BB213435AB2EC
:102C00007B681B789B115BB201210B405BB21343C5
:102C10005BB2DAB2C54B5A707B6807331B789B00F6
:102C20005BB27F2293435AB27B6806331B785B000A
:102C30005BB240210B405BB213435AB27B68053351
:102C40001B785BB220210B405BB213435AB27B6806
:102C500004331B785B105BB210210B405BB2134353
:102C60005AB27B6803331B789B105BB208210B4080
:102C70005BB213435AB27B6802331B78DB105BB242
:102C800004210B405BB213435AB27B6801331B78BB
:102C90001B115BB202210B405BB213435AB27B683B
:102CA0001B785B115BB201210B405BB213435BB23B
:102CB000DAB29E4B9A707B6807331B78DB005BB2FD
:102CC0007F2293435AB27B6806331B781900102386
:102CD00019407B6807331B781800022303400B431D
:102CE0009B005BB213435AB27B6805331B78190013
:102CF000102319407B6806331B7818000223034019
:102D00000B435B005BB213435AB27B6804331B78FE
:102D10005BB210210B4059B27B6805331B785BB264
:102D2000022003405BB20B435BB213435AB27B6891
:102D300004331B785B105BB201210B405BB2134381
:102D40005BB2DAB2794BDA707B6803331B789B0194
:102D50005BB27F2293435AB27B6802331B785B01DC
:102D60005BB240210B405BB213435AB27B68013324
:102D70001B781B015BB220210B405BB213435AB29C
:102D80007B681B78DB005BB210210B405BB2134306
:102D90005AB27B6807331B785B005BB208210B409B
:102DA0005BB213435AB27B6806331B785BB20421D3
:102DB0000B405BB213435AB27B6805331B785B1040
:102DC0005BB202210B405BB213435AB27B680433FF
:102DD0001B789B105BB201210B405BB213435BB2CB
:102DE000DAB2524B1A717B6803331B785B015BB21A
:102DF0007F2293435AB27B6802331B781B015BB27C
:102E000040210B405BB213435AB27B6801331B78FD
:102E1000DB005BB220210B405BB213435AB27B68EC
:102E20001B789B005BB210210B405BB213435AB27C
:102E30007B6807331B785BB208210B405BB21343FE
:102E40005AB27B6806331B785B105BB204210B40DF
:102E50005BB213435AB27B6805331B789B105BB29D
:102E600002210B405BB213435AB27B6804331B78D8
:102E7000DB105BB201210B405BB213435BB2DAB2F1
:102E80002A4B5A717B6803331B781B015BB27F228C
:102E900093435AB27B6802331B78DB005BB240215C
:102EA0000B405BB213435AB27B6801331B789B0023
:102EB0005BB220210B405BB213435AB27B681B7894
:102EC0005B005BB210210B405BB213435AB27B68CC
:102ED00003331B785B105BB208210B405BB21343DA
:102EE0005AB27B6802331B789B105BB204210B4003
:102EF0005BB213435AB27B6801331B78DB105BB2C1
:102F000002210B405BB213435AB27B681B781B1142
:102F10005BB201210B405BB213435BB2DAB2034BED
:102F20009A71C046BD4602B080BDC0463808002038
:102F300090B583B000AF786039607B6801331B784F
:102F40005B015BB27F2293435AB27B6802331B78EA
:102F50001900802319407B681B7818000823034060
:102F60000B435B105BB213435AB27B6801331B788F
:102F70005BB220210B405BB213435AB27B68023331
:102F80001B781B015BB210210B405BB213435AB29A
:102F90007B681B781900A02319407B6803331B78DA
:102FA0001800102303400B431B115BB213435BB2A9
:102FB000DAB23B681A703B6801337A6801321278E2
:102FC000920152B27F218A4351B27A68127812017B
:102FD00052B24020024052B20A4351B27A680232E1
:102FE0001278920052B22820024052B20A4351B2E3
:102FF0007A6801321278921052B21020024052B216
:103000000A4351B27A68023212781000202210402E
:103010007A68013212781400102222400243D21042
:1030200052B20A4351B27A681278121152B2012098
:10303000024052B20A4352B2D2B21A703B68023313
:103040007A6803321278520052B27F218A4351B219
:103050007A681278920152B24020024052B20A437A
:1030600051B27A6801321278520152B220200240E5
:1030700052B20A4351B27A681278D20052B210208A
:10308000024052B20A4351B27A68033212781000F9
:10309000202210407A680232127814001022224056
:1030A00010437A6801321278140008222240024349
:1030B000921052B20A4351B27A681278921152B207
:1030C0000120024052B20A4352B2D2B21A703B6897
:1030D00003337A680532127852B27F218A4351B2A3
:1030E0007A680432127852B20120024052B20A4386
:1030F00051B27A68063212781000102210407A68B5
:10310000053212781400022222400243920052B289
:103110000A4351B27A6803321278120152B2202067
:10312000024052B20A4351B27A6804321278100057
:10313000082210407A6806321278140002222240D7
:103140000243520052B20A4351B27A6803321278F3
:10315000521052B20220024052B20A4352B2D2B2CC
:103160001A703B6804337A6806321278920052B2C1
:103170007F218A4351B27A6805321278D20052B266
:103180004020024052B20A4351B27A6804321278A7
:10319000921052B22020024052B20A4351B27A68D1
:1031A00005321278120152B21020024052B20A4384
:1031B00051B27A6805321278521052B20820024099
:1031C00052B20A4351B27A6806321278521152B2A0
:1031D0000420024052B20A4351B27A680432127893
:1031E00052B20220024050B27A680632127852B2CD
:1031F0000124224052B2024352B20A4352B2D2B226
:103200001A703B6805337A6804321278520052B261
:103210007F218A4351B27A68063212781000082260
:1032200010407A68053212781400042222400243CA
:10323000D20052B20A4351B27A68053212781000B5
:10324000402210407A680432127814001022224082
:1032500010437A6803321278140008222240024395
:10326000921052B20A4351B27A6806321278D210E2
:1032700052B20820024052B20A4351B27A68033275
:10328000127852B20120024052B20A4352B2D2B274
:103290001A70C046BD4603B090BDC04680B584B02C
:1032A00000AF78607B681B78DB08DAB20F23FB186D
:1032B00010210A401A707B6801331A780E23FB181C
:1032C000D2091A707B681B785B005AB20E23FB1878
:1032D0001B785BB213435BB2DAB27B681A707B680F
:1032E00002331A780E23FB18D2091A707B68013357
:1032F0007A6801321278520051B20E22BA1812784E
:1033000052B20A4352B2D2B21A707B6803331A78AF
:103310000E23FB18D2091A707B6802337A680232D6
:103320001278520051B20E22BA18127852B20A43E1
:1033300052B2D2B21A707B6804331A780E23FB188B
:10334000D2091A707B6803331B78DB08DAB20D23CD
:10335000FB1801210A401A707B6803337A68033234
:103360001278520052B210218A4351B20E22BA187A
:10337000127852B20A4351B20F22BA18127852B2DE
:103380000A4352B2D2B21A707B6805331A780E2300
:10339000FB18D2091A707B6804337A6804321278F9
:1033A000520051B20E22BA18127852B20A4352B2E7
:1033B000D2B21A707B6806331A780E23FB18D20932
:1033C0001A707B6805337A6805321278520051B260
:1033D0000E22BA18127852B20A4352B2D2B21A70FE
:1033E0007B6806337A6806321278520051B20D2299
:1033F000BA18127852B20A4352B2D2B21A70C04608
:10340000BD4604B080BDC04680B584B000AF7860D2
:103410007B6806331B78DB00DAB20F23FB18082128
:103420000A401A707B6803331B78DB00DAB20E2384
:10343000FB187F218A431A707B6806337A6806324C
:1034400012785208D2B251B27A6805321278D2019B
:1034500052B20A4352B2D2B21A707B6805337A680C
:10346000053212785208D2B251B27A680432127818
:10347000D20152B20A4352B2D2B21A707B680433FC
:103480007A68043212785208D2B251B27A680332A2
:103490001278D20152B20A4352B2D2B21A707B6889
:1034A00003337A68033212785208D2B252B208213A
:1034B0008A4351B20F22BA18127852B20A4351B25B
:1034C0007A6802321278D20152B20A4352B2D2B2B0
:1034D0001A707B6802337A68023212785208D2B2CC
:1034E00051B27A6801321278D20152B20A4352B212
:1034F000D2B21A707B6801337A68013212785208AE
:10350000D2B251B27A681278D20152B20A4352B2A0
:10351000D2B21A707B681B785B08DAB20E23FB18F4
:103520001B781343DAB27B681A70C046BD4604B0FC
:1035300080BDC04603460B437FD4002243088B4224
:1035400074D303098B425FD3030A8B4244D3030B2A
:103550008B4228D3030C8B420DD3FF22090212BAEF
:10356000030C8B4202D31212090265D0030B8B426B
:1035700019D300E0090AC30B8B4201D3CB03C01A55
:103580005241830B8B4201D38B03C01A5241430B30
:103590008B4201D34B03C01A5241030B8B4201D320
:1035A0000B03C01A5241C30A8B4201D3CB02C01A8B
:1035B0005241830A8B4201D38B02C01A5241430A03
:1035C0008B4201D34B02C01A5241030A8B4201D3F2
:1035D0000B02C01A5241CDD2C3098B4201D3CB0199
:1035E000C01A524183098B4201D38B01C01A524148
:1035F00043098B4201D34B01C01A524103098B424C
:1036000001D30B01C01A5241C3088B4201D3CB0036
:10361000C01A524183088B4201D38B00C01A524119
:1036200043088B4201D34B00C01A5241411A00D2C9
:1036300001465241104670475DE0CA0F00D0494232
:10364000031000D34042534000229C4603098B42A2
:103650002DD3030A8B4212D3FC22890112BA030A2A
:103660008B420CD3890192118B4208D389019211AC
:103670008B4204D389013AD0921100E08909C30931
:103680008B4201D3CB01C01A524183098B4201D333
:103690008B01C01A524143098B4201D34B01C01A1E
:1036A000524103098B4201D30B01C01A5241C30896
:1036B0008B4201D3CB00C01A524183088B4201D305
:1036C0008B00C01A5241D9D243088B4201D34B0020
:1036D000C01A5241411A00D20146634652415B1062
:1036E000104601D34042002B00D549427047634643
:1036F0005B1000D3404201B5002000F005F802BD88
:103700000029F8D016E770477047C04670B50F2AF9
:1037100032D90C0004430B00A40731D1150004007A
:10372000103D2D0901352D0149191E6826605E687E
:1037300066609E68A660DE681033E66010349942C9
:10374000F3D10F2345191340032B1BD91C1F002352
:10375000A4080134A400CE58EE5004339C42FAD1A0
:1037600003232D1909191A4005D00023CC5CEC5411
:1037700001339A42FAD170BD0500002AF5D1FAE76B
:103780000500F2E71A00F8E710B5094B094A1C6872
:10379000094BA8342068616800F010F8012200236A
:1037A00080185941206061604800400810BDC04643
:1037B000580600202D7F954C2DF45158F0B54F46FA
:1037C0004646C0B41604360C9946330005042C0C4A
:1037D000070C150C63437E436F4365431C0CAD1906
:1037E00064199C46A64203D980235B02984647444D
:1037F0006346250CEF191D044B464A4343432D0CE9
:10380000240464199918C91920000CBC90469946E3
:10381000F0BDC046637C777BF26B6FC53001672BD0
:10382000FED7AB76CA82C97DFA5947F0ADD4A2AFB4
:103830009CA472C0B7FD9326363FF7CC34A5E5F1C2
:1038400071D8311504C723C31896059A071280E270
:10385000EB27B27509832C1A1B6E5AA0523BD6B3C4
:1038600029E32F8453D100ED20FCB15B6ACBBE3934
:103870004A4C58CFD0EFAAFB434D338545F9027F20
:10388000503C9FA851A3408F929D38F5BCB6DA21D9
:1038900010FFF3D2CD0C13EC5F974417C4A77E3D05
:1038A000645D197360814FDC222A908846EEB8145B
:1038B000DE5E0BDBE0323A0A4906245CC2D3AC621E
:1038C0009195E479E7C8376D8DD54EA96C56F4EA29
:1038D000657AAE08BA78252E1CA6B4C6E8DD741F3A
:1038E0004BBD8B8A703EB5664803F60E613557B9FD
:1038F00086C11D9EE1F8981169D98E949B1E87E9B7
:10390000CE5528DF8CA1890DBFE6426841992D0F65
:10391000B054BB1652096AD53036A538BF40A39EB5
:1039200081F3D7FB7CE339829B2FFF87348E43449E
:10393000C4DEE9CB547B9432A6C2233DEE4C950BFA
:1039400042FAC34E082EA16628D924B2765BA2495A
:103950006D8BD12572F8F66486689816D4A45CCC79
:103960005D65B6926C704850FDEDB9DA5E1546574C
:10397000A78D9D8490D8AB008CBCD30AF7E4580582
:10398000B8B34506D02C1E8FCA3F0F02C1AFBD038E
:1039900001138A6B3A9111414F67DCEA97F2CFCE5F
:1039A000F0B4E67396AC7422E7AD3585E2F937E8FA
:1039B0001C75DF6E47F11A711D29C5896FB7620E3C
:1039C000AA18BE1BFC563E4BC6D279209ADBC0FE1D
:1039D00078CD5AF41FDDA8338807C731B1121059CA
:1039E0002780EC5F60517FA919B54A0D2DE57A9FBC
:1039F00093C99CEFA0E03B4DAE2AF5B0C8EBBB3CB1
:103A000083539961172B047EBA77D626E169146334
:103A100055210C7D8D01020408102040801B366C5E
:103A2000D8AB4D9A2F5EBC63C697356AD4B37DFA86
:103A3000EFC5913972E4D3BD61C29F254A943366C4
:103A4000CC831D3A74E8CB8D01020408102040801D
:103A50001B366CD8AB4D9A2F5EBC63C697356AD4C3
:103A6000B37DFAEFC5913972E4D3BD61C29F254A97
:103A7000943366CC831D3A74E8CB8D0102040810A0
:103A80002040801B366CD8AB4D9A2F5EBC63C69726
:103A9000356AD4B37DFAEFC5913972E4D3BD61C202
:103AA0009F254A943366CC831D3A74E8CB8D01027E
:103AB0000408102040801B366CD8AB4D9A2F5EBC9A
:103AC00063C697356AD4B37DFAEFC5913972E4D3F2
:103AD000BD61C29F254A943366CC831D3A74E8CBFE
:103AE0008D01020408102040801B366CD8AB4D9A23
:103AF0002F5EBC63C697356AD4B37DFAEFC59139A2
:103B000072E4D3BD61C29F254A943366CC831D3ACB
:103B100074E8CB00CAFEBABEDEADBEEF0001020300
:103B200004050607CAFEBABEDEADBEEF42616443BD
:103B30006D640A0056657220322E340001010202C3
:103B4000020202020102020202020201421D0008F8
:103B5000AE1D00082E1E0008B01E00082C1F000815
:0C3B6000A01F000822200008AC20000874
:103B6C006E656D656D657369100000000E00040FC5
:103B7C000D070104020E0F020B0D0801030A0A06C1
:103B8C00060C0C0B0509090500030708040F010CB2
:103B9C000E0808020D04060902010B070F050C0B99
:103BAC000903070E030A0A000506000D0F03010D99
:103BBC0008040E07060F0B020308040E090C07007D
:103BCC0002010D0A0C060009050B0A05000D0E0872
:103BDC00070A0B010A03040F0D040102050B08066A
:103BEC000C07060C09000305020E0F090A0D00074D
:103BFC0009000E09060303040F06050A01020D084D
:103C0C000C05070E0B0C040B020F08010D01060A24
:103C1C00040D090008060F09030800070B04010F27
:103C2C00020E0C03050B0A050E02070C070D0D08FE
:103C3C000E0B03050006060F09000A030104020718
:103C4C000802050C0B010C0A040E0F090A03060FDF
:103C5C00090000060C0A0B01070D0D080F090104E1
:103C6C0003050E0B050C02070802040E020E0C0BCA
:103C7C000402010C07040A070B0D060108050500D8
:103C8C00030F0F0A0D0300090E080906040B0208A6
:103C9C00010C0B070A010D0E0702080D0F06090F88
:103CAC000C000509060A030400050E030C0A010F9B
:103CBC000A040F020907020C0609080500060D018B
:103CCC00030D040E0E00070B05030B0809040E036D
:103CDC000F02050C020908050C0F030A070B000E56
:103CEC0004010A0701060D000B08060D040D0B005C
:103CFC00020B0E070F04000908010D0A030E0C033A
:103D0C000905070C05020A0F060801060106040B3B
:103D1C000B0D0D080C010304070A0E070A090F0509
:103D2C000600080F000E05020903020C0D01020F1C
:103D3C00080D0408060A0F030B0701040A0C0905F9
:103D4C0003060E0B0500000E0C09070207020B01FF
:103D5C00040E010709040C0A0E08020D000F060CD4
:103D6C000A090D000F0303050506080B0C000020C3
:103D7C004C0000208C000020CC0000200C01002006
:103D8C004C0100208C010020CC0100200000000020
:103D9C00000000001C05002084050020EC0500201C
:103DAC000000000000000000000000000000000007
:103DBC0000000000000000000000000000000000F7
:103DCC0000000000000000000000000000000000E7
:103DDC0000000000000000000000000000000000D7
:103DEC0000000000000000000000000000000000C7
:103DFC0000000000000000000000000000000000B7
:103E0C0000000000000000000000000000000000A6
:103E1C000000000000000000000000000000000096
:103E2C000000000000000000000000000000000086
:103E3C000000000000000000010000000000000075
:103E4C000E33CDAB34126DE6ECDE05000B0000003A
:103E5C000000000000000000000000000000000056
:103E6C000000000000000000000000000000000046
:103E7C000000000000000000000000000000000036
:103E8C000000000000000000000000000000000026
:0C41BC00000000000000000030020020A5
:0400000508000000EF
:00000001FF
