:10000000500C0010D51C0000351D0000351D0000EF
:10001000351D0000351D0000351D000000000000EA
:10002000000000000000000000000000351D00007E
:10003000351D000000000000351D0000351D0000CA
:10004000351D0000351D0000351D0000351D000068
:10005000351D0000351D0000351D0000351D000058
:10006000351D0000351D0000351D0000351D000048
:10007000351D0000351D0000351D0000351D000038
:10008000351D0000351D0000351D0000351D000028
:10009000351D0000351D0000351D0000351D000018
:1000A000351D0000351D0000351D0000351D000008
:1000B000351D0000351D0000351D0000351D0000F8
:1000C000351D0000351D0000351D000080B485B0D1
:1000D00000AF78607B681F2B06D87B68FB600D4BF8
:1000E000D3F8A831BB6006E07B68203BFB60094B7E
:1000F000D3F8AC31BB60FB68BA6822FA03F303F0B3
:100100000303BB60BB6818461437BD465DF8047B2B
:10011000704700BF00C00F4080B584B000AF78606A
:10012000154B1B68BB607868FFF7D0FFF860FB6871
:10013000032B17D801A252F823F000BF4D01000095
:1001400053010000590100005F0100000423FB601F
:1001500008E00123FB6005E00223FB6002E00823C6
:10016000FB6000BFBA68FB68B2FBF3F3BB60BB681F
:1001700018461037BD4680BD0000001080B483B023
:1001800000AF78600B46FB70FB78012B0AD10F4A59
:100190000E4BD3F8C41078680D4B03400B43C2F8E4
:1001A000C4300DE0FB78002B0AD1084A074BD3F886
:1001B000C4107B68DB431940054B0B40C2F8C430C8
:1001C0000C37BD465DF8047B704700BF00C00F4090
:1001D000DEF7EFEF80B400AF4E4B2022C3F8A02132
:1001E0004C4BD3F8A03103F02003002B07D000BF05
:1001F000484BD3F8A03103F04003002BF8D0454B17
:100200000322C3F80421434B0022C3F8A821414B29
:100210000022C3F8AC213F4B0122C3F80C213D4B17
:100220003D4AC3F884203B4BAA22C3F88C20394BAB
:100230005522C3F88C20374B0122C3F88020354B60
:10024000AA22C3F88C20334B5522C3F88C2000BF60
:10025000304BD3F8883003F08063002BF8D02D4B5F
:100260000322C3F880202B4BAA22C3F88C20294BF1
:100270005522C3F88C2000BF264BD3F8883003F0FA
:100280004073002BF8D0234B2322C3F8A420214B2A
:10029000AA22C3F8AC201F4B5522C3F8AC201D4B3B
:1002A0000122C3F8A0201B4BAA22C3F8AC20194B93
:1002B0005522C3F8AC2000BF164BD3F8A83003F486
:1002C0008063002BF8D0134B0322C3F8A020114BFE
:1002D000AA22C3F8AC200F4B5522C3F8AC2000BFB4
:1002E0000C4BD3F8A83003F44073002BF8D0094B23
:1002F0000A4AC3F8C420074B0022C3F8C821054BA3
:1003000043F23A021A60064B00229A60BD465DF83D
:10031000047B704700C00F4063000500DE8728049F
:1003200000ED00E080B58EB000AF7860396000234A
:1003300087F837300023FB600023BB6000237B621B
:1003400001233B620023FB610023BB6100237B612F
:10035000734B3B617A68734B9A4204D10620FFF7D6
:10036000DBFE386319E07A686F4B9A4204D10820AB
:10037000FFF7D2FE386310E07A686C4B9A4204D1E2
:100380003020FFF7C9FE386307E07A68684B9A426D
:1003900003D13220FFF7C0FE38633B6B1B093B6380
:1003A0000123FB6256E00023BB6249E0FB6A3A6B23
:1003B00002FB03F2F96ABB6A0B44B2FBF3F3BB60C6
:1003C000BA683B68B2FBF3F37B62BB683A68B3FB85
:1003D000F2F2396801FB02F29A1A3B685B089A4212
:1003E00002D97B6A01337B627B6A022B25D97B6A47
:1003F000B3F5803F21D2BA687B6AB2FBF3F3FB60AE
:10040000FA683B689A4204D83A68FB68D31A7B6161
:1004100003E0FA683B68D31A7B617A693B699A42C8
:100420000BD2FB6A3B62BB6AFB617B6ABB617B6987
:100430003B617B69002B00D105E0BB6A0133BB62E5
:10044000BB6A0F2BB2D97B69002B00D105E0FB6A98
:100450000133FB62FB6A0F2BA5D93A6813465B0098
:100460001A44344BA3FB02135A093B699A4251D9EF
:100470007A682D4B9A4223D17B681B7BDBB263F0F9
:100480007F03DAB27B681A73BB691B0ADAB27B6836
:100490001A71BB69DAB27B681A707B681B7BDBB2AE
:1004A00003F07F03DAB27B681A733B6A1B01DAB28E
:1004B000FB6903F00F031343DAB27B689A6226E00C
:1004C0007B681B7BDBB263F07F03DAB27B681A7355
:1004D000BB691B0ADAB27B681A71BB69DAB27B6846
:1004E0001A707B681B7BDBB203F07F03DAB27B6898
:1004F0001A733B6ADBB21B01DAB2FB69DBB203F0B1
:100500000F03DBB21343DAB27B6883F828200123A0
:1005100087F8373097F8373018463837BD4680BDF2
:10052000A086010000C0004000000140008009409A
:1005300000C009401F85EB5180B584B000AF7860E2
:1005400039607A68A44B9A420FD07A68A34B9A42DA
:100550000BD07A68A24B9A4207D07A68A14B9A4294
:1005600003D0A148BF2101F0E9FB3B685B79002B78
:100570000FD03B685B79012B0BD03B685B79022B7A
:1005800007D03B685B79032B03D09748C02101F06B
:10059000D5FB3B689B79002B07D03B689B79012BEF
:1005A00003D09148C12101F0C9FB3B681B79002BA6
:1005B00013D03B681B79012B0FD03B681B79022BB2
:1005C0000BD03B681B79032B07D03B681B79042BAE
:1005D00003D08548C22101F0B1FB7A687E4B9A4274
:1005E00003D108200121FFF7C9FD7A687B4B9A42AD
:1005F00003D110200121FFF7C1FD7A68784B9A42A0
:1006000004D14FF080700121FFF7B8FD7A68754B77
:100610009A4204D14FF000700121FFF7AFFD7A68D4
:100620006E4B9A4242D17B6807221A727B68002285
:100630001A7203E07B681B78DBB2FB607B681B7D72
:10064000DBB203F00103002BF4D17B68802283F836
:10065000302000BF7B681B7DDBB203F02003002B42
:10066000F8D07B68002283F830207B6800225A6033
:100670007B6800221A737B6800221A627B68002262
:100680001A747B68002283F84C207B68002283F870
:1006900054207B68002283F850207B681B7EDBB2ED
:1006A000FB607B681B7DDBB2FB602EE07B68072272
:1006B0001A727B6800221A7203E07B681B78DBB237
:1006C000FB607B681B7DDBB203F00103002BF4D1E0
:1006D0007B68802283F8302000BF7B681B7DDBB203
:1006E00003F02003002BF8D07B68002283F8302031
:1006F0007B6800225A607B6800221A737B680022A4
:100700001A627B681B7DDBB2FB607A68354B9A42CC
:1007100003D17B68002283F824203B681B6878683B
:100720001946FFF7FFFD7A682C4B9A4206D17B6889
:100730001B7BDBB203F0C003FB6005E07B681B7B27
:10074000DBB203F0C003FB603B685B79012B04D094
:10075000022B07D0002B0FD009E0FB6843F0010308
:10076000FB600AE0FB6843F00203FB6005E0FB6806
:1007700043F00303FB6000E000BF3B681B79002BE4
:1007800024D0FB6843F00803FB603B681B79013B06
:10079000032B1AD801A252F823F000BFCB070000A8
:1007A000AD070000B7070000C1070000FB6843F079
:1007B0001003FB600AE0FB6843F02003FB6005E0E8
:1007C000FB6843F03003FB6000E000BF3B689B79AF
:1007D000012B0BD00FE000BF00C000400000014023
:1007E0000080094000C00940043B0000FB6843F062
:1007F0000403FB6000BF7A68074B9A4204D1FB6890
:10080000DAB27B681A7303E0FB68DAB27B681A73AA
:100810001037BD4680BD00BF0000014080B483B0EA
:1008200000AF78607B684FF416521A607B68032231
:100830005A717B6800221A717B6800229A710C370A
:10084000BD465DF8047B704780B582B000AF78602C
:100850000B46FB707A68114B9A4210D07A68104BA5
:100860009A420CD07A680F4B9A4208D07A680E4BA5
:100870009A4204D00D4840F2CF1101F05FFA7A6835
:10088000074B9A4203D17B68FA781A7002E07B68C2
:10089000FA781A700837BD4680BD00BF00C000401E
:1008A000000001400080094000C00940043B0000F6
:1008B00080B582B000AF78607A68114B9A4210D050
:1008C0007A68104B9A420CD07A680F4B9A4208D043
:1008D0007A680E4B9A4204D00D4840F2E71101F0BD
:1008E0002DFA7A68074B9A4203D17B681B78DBB2FA
:1008F00002E07B681B78DBB218460837BD4680BD36
:1009000000C00040000001400080094000C00940D4
:10091000043B000080B58AB000AFF860B9607A602F
:10092000FB70BB687B617B687B62FB78012B37D1F6
:1009300000233B6230E04FF0FF33FB6106E0FB69D0
:10094000002B00D109E0FB69013BFB61FB681B7DCB
:10095000DBB203F02003002BF1D0FB69002B01D1A7
:1009600000BF45E01023BB6110E07B695A1C7A612F
:100970001B78F8681946FFF767FFBB69013BBB614D
:100980007B6A013B7B623B6A01333B62BB69002BA4
:1009900002D07B6A002BE8D17B6A002BCBD127E009
:1009A00000233B6221E0FB681B7DDBB203F02003E8
:1009B000002B00D11CE01023BB6110E07B695A1CA6
:1009C0007A611B78F8681946FFF73EFF7B6A013BA6
:1009D0007B62BB69013BBB613B6A01333B62BB6924
:1009E000002B02D07B6A002BE8D17B6A002BDAD186
:1009F0003B6A18462837BD4680BD00BF90B589B018
:100A000000AFF860B9607A60FB70BB683B617B68DF
:100A1000FB61FB78012B2BD10023BB6124E04FF05D
:100A2000FF337B6106E07B69002B00D109E07B6925
:100A3000013B7B61FB681B7DDBB203F00103002BF4
:100A4000F1D07B69002B01D100BF2DE03C69631C14
:100A50003B61F868FFF72CFF03462370FB69013BFD
:100A6000FB61BB690133BB61FB69002BD7D11BE084
:100A70000023BB6115E0FB681B7DDBB203F00103C3
:100A8000002B00D110E03C69631C3B61F868FFF764
:100A90000FFF03462370BB690133BB61FB69013B58
:100AA000FB61FB69002BE6D1BB6918462437BD46C4
:100AB00090BD00BF80B584B000AF7860396000237E
:100AC000FB737A684C4B9A4210D07A684B4B9A422F
:100AD0000CD07A684A4B9A4208D07A68494B9A42BD
:100AE00004D049484FF44B7101F028F93B68DB789A
:100AF000002B10D03B68DB78012B0CD03B68DB78F7
:100B0000022B08D03B68DB78032B04D03E4840F230
:100B10002D3101F013F93B689B78002B08D03B681E
:100B20009B78012B04D0384840F22E3101F006F9B1
:100B30003B681B78002B08D03B681B78012B04D046
:100B4000314840F22F3101F0F9F83B685B78002B17
:100B500008D03B685B78012B04D02B484FF44C71D4
:100B600001F0ECF8FB7B43F00103FB733B68DB789F
:100B7000012B04D0022B07D0002B0FD009E0FB7B08
:100B800043F04003FB730AE0FB7B63F07F03FB73DE
:100B900005E0FB7B63F03F03FB7300E000BF3B68B5
:100BA0005B78012B03D1FB7B43F00403FB733B68B1
:100BB0001B78012B03D1FB7B43F00203FB733B68E3
:100BC0009B78012B03D1FB7B43F00803FB737A680E
:100BD0000A4B9A4206D1FB7B23F03003DAB27B68E2
:100BE0001A7205E0FB7B23F03003DAB27B681A72DD
:100BF0001037BD4680BD00BF00C00040000001406E
:100C00000080094000C00940043B000080B483B06C
:100C100000AF78607B6800229A707B680022DA70EF
:100C20007B6801221A707B6801225A700C37BD461E
:100C30005DF8047B704700BF80B582B000AF78607C
:100C40000B46FB707A68294B9A4210D07A68284B81
:100C50009A420CD07A68274B9A4208D07A68264B81
:100C60009A4204D0254840F2DF3101F067F8FB7862
:100C7000002B07D0FB78012B04D020484FF478716B
:100C800001F05CF8FB78012B19D17A68184B9A4275
:100C90000AD17B6893F83030DBB263F07F03DAB2BD
:100CA0007B6883F830201DE07B6893F83030DBB23E
:100CB00063F07F03DAB27B6883F8302012E07A6851
:100CC0000B4B9A4207D17B6893F830307B68002247
:100CD00083F8302006E07B6893F830307B68002290
:100CE00083F830200837BD4680BD00BF00C00040FB
:100CF000000001400080094000C00940043B0000A2
:100D000080B500AF01F002F901F086F901F0A8F911
:100D1000FCE700BF80B485B000AF0346FB71002341
:100D2000FB60FB79042B1CD801A252F823F000BF12
:100D3000450D00004B0D0000510D0000570D000047
:100D40005D0D00000B4BFB600CE00B4BFB6009E002
:100D50000A4BFB6006E00A4BFB6003E0094BFB60BB
:100D600000E000BFFB6818461437BD465DF8047B01
:100D7000704700BF00C0092020C0092040C00920E2
:100D800060C0092080C0092080B584B000AF396000
:100D900013460246FA71BB71FB791846FFF7BAFF9A
:100DA000F860FB68002B10D0BB79002B06D0FB68E5
:100DB0001A683B681A43FB681A6006E0FB681A6809
:100DC0003B68DB431A40FB681A601037BD4680BDA4
:100DD00080B584B000AF03463960FB71FB791846DB
:100DE000FFF798FFF860FB68002B02D0FB683A68B9
:100DF0009A611037BD4680BD80B584B000AF034610
:100E00003960FB71FB791846FFF784FFF860FB68D7
:100E1000002B02D0FB683A68DA611037BD4680BD0E
:100E200080B582B000AF396013460246FA71BB71DB
:100E3000FA79BB79104639681A46FFF7A5FF0837DB
:100E4000BD4680BD80B582B000AF03463960FB71FE
:100E5000FB7918463968FFF7BBFF0837BD4680BDF0
:100E600080B582B000AF03463960FB71FB7918464C
:100E70003968FFF7C1FF0837BD4680BD80B483B035
:100E800000AF0346FB71FB79034AD35C18460C376D
:100E9000BD465DF8047B70476C3B000080B483B0B6
:100EA00000AF0346FB71FB79034AD35C18460C374D
:100EB000BD465DF8047B70476C3C000080B584B093
:100EC00000AF0023FB6030E0FB689B00604A1168C4
:100ED000FA6892000A4411785E4AD154FB689B007C
:100EE00001335B4A1168FA68920001320A441178B2
:100EF000584AD154FB689B000233554A1168FA687E
:100F0000920002320A441178524AD154FB689B0085
:100F100003334F4A1168FA68920003320A44117889
:100F20004C4AD154FB680133FB60FB68032BCBD9DF
:100F300086E00023BB600FE0FB6803F18043013BC8
:100F40009A00BB681344434AD25C3946BB680B44E1
:100F50001A70BB680133BB60BB68032BECD9FB681C
:100F600003F00303002B2AD13B787B607B783B7036
:100F7000BB787B70FB78BB707B68DBB2FB703B7827
:100F80001846FFF77BFF03463B707B781846FFF758
:100F900075FF03467B70BB781846FFF76FFF03466B
:100FA000BB70FB781846FFF769FF0346FB703A7881
:100FB000FB689B082849CB5C5340DBB23B70FB6865
:100FC0009A00FB6803F18043043B9B002149C95C04
:100FD0003B784B40D9B21F4B9954FB689B005A1C7D
:100FE000FB6803F18043043B9B0001331949C95C52
:100FF0007B784B40D9B2174B9954FB689B009A1CE5
:10100000FB6803F18043043B9B0002331149C95C38
:10101000BB784B40D9B20F4B9954FB689B00DA1C4C
:10102000FB6803F18043043B9B0003330949C95C1F
:10103000FB784B40D9B2074B9954FB680133FB60F6
:10104000FB682B2B7FF675AF1037BD4680BD00BF08
:101050002C0700107C0600106C3D000090B484B09A
:1010600000AF0346FB710023FB7324E00023BB7336
:101070001BE0B87BFB7BBC7BFA7B1249A4002244BB
:101080000A441178FA799400FA7B22449400BA7BDE
:1010900022440D4CA25C4A40D2B20A49800003446B
:1010A0000B441A70BB7B0133BB73BB7B032BE0D9B2
:1010B000FB7B0133FB73FB7B032BD7D91037BD467A
:1010C00090BC70476C0600107C060010B0B582B072
:1010D00000AF0023FB711EE00023BB7115E0FD791A
:1010E000BC79F979BB790F4A89000B4413441B780A
:1010F0001846FFF7C3FE03461A460A49AB002344CD
:101100000B441A70BB790133BB71BB79032BE6D951
:10111000FB790133FB71FB79032BDDD90837BD4621
:10112000B0BD00BF6C06001080B483B000AF1E4B92
:101130001B79FB711C4B5A791B4B1A711A4B9A790C
:10114000194B5A71184BDA79174B9A71164BFA7979
:10115000DA71154B1B7AFB71134B9A7A124B1A7288
:10116000114BFA799A72104B5B7AFB710E4BDA7A5B
:101170000D4B5A720C4BFA79DA720B4B1B7BFB71DD
:10118000094BDA7B084B1A73074B9A7B064BDA73D1
:10119000054B5A7B044B9A73034BFA795A730C37FD
:1011A000BD465DF8047B70476C06001080B483B0C8
:1011B00000AF0346FB71FB795B00DAB2FB79DB0918
:1011C000DBB2194649000B441946C80019460346CC
:1011D0000B44DBB2DBB25340DBB2DBB218460C3758
:1011E000BD465DF8047B704780B582B000AF002338
:1011F000FB718DE0FB794A4AD35CBB71FB79484AAD
:10120000D25CFB7946490B441B795340DAB2FB7937
:1012100043490B441B7A5340DAB2FB7940490B44F3
:101220001B7B53407B71FB793D4AD25CFB793C4987
:101230000B441B7953403B713B791846FFF7B6FFCF
:1012400003463B71FB79FA793549895C38797A79BB
:101250004240D2B24A40D1B2314AD154FB79304AED
:1012600013441A79FB792E490B441B7A53403B7186
:101270003B791846FFF79AFF03463B71FB79FA79F1
:1012800027490A44117938797A794240D2B24A40E2
:10129000D2B223490B441A71FB79214A13441A7ABA
:1012A000FB791F490B441B7B53403B713B7918462C
:1012B000FFF77CFF03463B71FB79FA7918490A4432
:1012C000117A38797A794240D2B24A40D2B214497E
:1012D0000B441A72FB79124A13441A7BBB795340B0
:1012E0003B713B791846FFF761FF03463B71FB7981
:1012F000FA790B490A44117B38797A794240D2B2A3
:101300004A40D2B206490B441A73FB790133FB7190
:10131000FB79032B7FF66EAF0837BD4680BD00BF5B
:101320006C060010B0B582B000AF00237B6010E304
:10133000A94A7B6813441B78FB70A74A7B68134457
:1013400004331B78BB70A44A7B68134408331B78B2
:101350007B70A14A7B6813440C331B783B70FB788D
:101360001846FFF723FF03461846FFF71FFF034603
:101370001846FFF71BFF03461846FFF717FFBB7819
:101380001846FFF713FF03461846FFF70FFFBB7819
:101390001846FFF70BFF03461846FFF707FF034603
:1013A0001846FFF703FF03461846FFF7FFFE7B785A
:1013B0001846FFF7FBFE7B781846FFF7F7FE03465B
:1013C0001846FFF7F3FE03461846FFF7EFFE034605
:1013D0001846FFF7EBFE3B781846FFF7E7FE3B7831
:1013E0001846FFF7E3FE03461846FFF7DFFE3B789B
:1013F0001846FFF7DBFE03461846FFF7D7FE034605
:101400001846FFF7D3FE03461846FFF7CFFEFB78DA
:101410001846FFF7CBFE03461C46FB781846FFF73D
:10142000C5FE03461846FFF7C1FE03465C40FB7845
:101430001846FFF7BBFE03461846FFF7B7FE034604
:101440001846FFF7B3FE03465C40BD78BB781846EC
:10145000FFF7ACFE03465D40BB781846FFF7A6FEDB
:1014600003461846FFF7A2FE03461846FFF79EFE06
:1014700003466B405C407D787B781846FFF796FE0C
:1014800003461846FFF792FE03465D407B781846F8
:10149000FFF78CFE03461846FFF788FE0346184602
:1014A000FFF784FE03466B405C403D783B7818466E
:1014B000FFF77CFE03461846FFF778FE0346184602
:1014C000FFF774FE03466B406340DAB242497B6823
:1014D0000B441A70FB781846FFF768FEFB78184635
:1014E000FFF764FE03461846FFF760FEFB781846D8
:1014F000FFF75CFE03461846FFF758FE0346184602
:10150000FFF754FE03461846FFF750FEBB78184617
:10151000FFF74CFE03461846FFF748FE0346184601
:10152000FFF744FE03461846FFF740FE7B78184657
:10153000FFF73CFE03461846FFF738FE7B78184657
:10154000FFF734FE03461846FFF730FE0346184601
:10155000FFF72CFE03461846FFF728FE3B78184697
:10156000FFF724FE3B781846FFF720FE0346184697
:10157000FFF71CFE03461846FFF718FE0346184601
:10158000FFF714FEFC78FB781846FFF70FFE0346C2
:101590001846FFF70BFE03461846FFF707FE034603
:1015A0005C40BB781846FFF701FE03461D46BB783A
:1015B0001846FFF7FBFD03461846FFF7F7FD034605
:1015C0005D40BB781846FFF7F1FD03461846FFF76C
:1015D000EDFD034602E000BF6C0600101846FFF761
:1015E000E5FD03466B405C407D787B781846FFF74D
:1015F000DDFD03465D407B781846FFF7D7FD0346C7
:101600001846FFF7D3FD03461846FFF7CFFD034604
:101610006B405C403D783B781846FFF7C7FD0346BA
:101620001846FFF7C3FD03465D403B781846FFF7B9
:10163000BDFD03461846FFF7B9FD03461846FFF700
:10164000B5FD03466B406340DAB2A9497B680B44A1
:1016500004331A70FB781846FFF7A8FDFB7818468C
:10166000FFF7A4FD03461846FFF7A0FD0346184602
:10167000FFF79CFD03461846FFF798FDBB78184618
:10168000FFF794FDBB781846FFF790FD0346184618
:10169000FFF78CFDBB781846FFF788FD0346184618
:1016A000FFF784FD03461846FFF780FD0346184602
:1016B000FFF77CFD7B781846FFF778FD0346184658
:1016C000FFF774FD03461846FFF770FD0346184602
:1016D000FFF76CFD3B781846FFF768FD0346184698
:1016E000FFF764FD3B781846FFF760FD0346184698
:1016F000FFF75CFD03461846FFF758FD0346184602
:10170000FFF754FDFC78FB781846FFF74FFD0346C2
:101710001846FFF74BFD03465C40FB781846FFF781
:1017200045FD03461846FFF741FD03461846FFF7FF
:101730003DFD03465C40BD78BB781846FFF736FD9B
:1017400003461846FFF732FD03461846FFF72EFD05
:1017500003466B405C407B781846FFF727FD034645
:101760001D467B781846FFF721FD03461846FFF714
:101770001DFD03465D407B781846FFF717FD0346C5
:101780001846FFF713FD03461846FFF70FFD034603
:101790006B405C403D783B781846FFF707FD0346F9
:1017A0005D403B781846FFF701FD03461846FFF7FA
:1017B000FDFC03461846FFF7F9FC03466B40634007
:1017C000DAB24B497B680B4408331A70FB78184631
:1017D000FFF7ECFC03461846FFF7E8FCFB781846D9
:1017E000FFF7E4FC03461846FFF7E0FC0346184603
:1017F000FFF7DCFC03461846FFF7D8FCBB78184619
:10180000FFF7D4FCBB781846FFF7D0FC0346184618
:10181000FFF7CCFC03461846FFF7C8FC0346184602
:10182000FFF7C4FC7B781846FFF7C0FC7B781846AE
:10183000FFF7BCFC03461846FFF7B8FC7B78184658
:10184000FFF7B4FC03461846FFF7B0FC0346184602
:10185000FFF7ACFC03461846FFF7A8FC3B78184698
:10186000FFF7A4FC03461846FFF7A0FC0346184602
:10187000FFF79CFC03461846FFF798FCFC78FB78C2
:101880001846FFF793FC03465C40FB781846FFF7C9
:101890008DFC03461846FFF789FC03461846FFF700
:1018A00085FC03465C40BD78BB781846FFF77EFC9C
:1018B00003461846FFF77AFC03465D40BB7818469E
:1018C000FFF774FC03461846FFF770FC0346184602
:1018D000FFF76CFC03466B405C407D787B781846D4
:1018E000FFF764FC03461846FFF760FC02E000BF08
:1018F0006C06001003461846FFF758FC03466B4081
:101900005C403B781846FFF751FC03461D463B7888
:101910001846FFF74BFC03461846FFF747FC034603
:101920005D403B781846FFF741FC03461846FFF739
:101930003DFC03461846FFF739FC03466B40634005
:10194000DAB207497B680B440C331A707B680133A9
:101950007B607B68032B7FF7EBAC0837BD46B0BDDF
:101960006C060010B0B582B000AF0023FB711EE022
:101970000023BB7115E0FD79BC79F979BB790F4A79
:1019800089000B4413441B781846FFF787FA034677
:101990001A460A49AB0023440B441A70BB79013341
:1019A000BB71BB79032BE6D9FB790133FB71FB7962
:1019B000032BDDD90837BD46B0BD00BF6C06001053
:1019C00080B483B000AF1E4BDB79FB711C4B9A795E
:1019D0001B4BDA711A4B5A79194B9A71184B1A79B9
:1019E000174B5A71164BFA791A71154B1B7AFB710A
:1019F000134B9A7A124B1A72114BFA799A72104B56
:101A00005B7AFB710E4BDA7A0D4B5A720C4BFA79FA
:101A1000DA720B4B1B7BFB71094B5A7B084B1A7319
:101A2000074B9A7B064B5A73054BDA7B044B9A7330
:101A3000034BFA79DA730C37BD465DF8047B7047C7
:101A40006C06001090B583B000AF00237B710023BB
:101A5000FB711AE00023BB7111E0B879FB792D4AC4
:101A60001168FA799400BA7922440A4412782A4912
:101A7000800003440B441A70BB790133BB71BB79FE
:101A8000032BEAD9FB790133FB71FB79032BE1D9F5
:101A90000020FFF7E3FA01237B710CE0FFF716FB50
:101AA000FFF742FBFFF7A0FB7B791846FFF7D6FA5A
:101AB0007B7901337B717B79092BEFD9FFF706FB2B
:101AC000FFF732FB0A20FFF7C9FA0023FB711AE087
:101AD0000023BB7111E0114B1A68FB799900BB79A7
:101AE0000B441344B879FA790B49800002440A4444
:101AF00012781A70BB790133BB71BB79032BEAD919
:101B0000FB790133FB71FB79032BE1D90C37BD461F
:101B100090BD00BF640600106C060010680600103F
:101B200090B583B000AF00237B710023FB711AE0F6
:101B30000023BB7111E0B879FB792D4A1168FA795D
:101B40009400BA7922440A4412782A498000034456
:101B50000B441A70BB790133BB71BB79032BEAD9F3
:101B6000FB790133FB71FB79032BE1D90A20FFF7E5
:101B700075FA09237B710CE0FFF722FFFFF7F2FEF5
:101B80007B791846FFF76AFAFFF7CCFB7B79013BBC
:101B90007B717B79002BEFD1FFF712FFFFF7E2FE9D
:101BA0000020FFF75BFA0023FB711AE00023BB71F2
:101BB00011E0114B1A68FB799900BB790B4413446F
:101BC000B879FA790B49800002440A4412781A70F5
:101BD000BB790133BB71BB79032BEAD9FB790133A4
:101BE000FB71FB79032BE1D90C37BD4690BD00BFDB
:101BF000640600106C0600106806001080B586B000
:101C000000AFF860B9607A6001F05CFF0346124AE9
:101C100083FB02015A189111DA178A1A462101FB37
:101C200002F29A1A1346BB8202E0FB8A0133FB825E
:101C3000FA8ABB8A9A42F8D3084BBA681A60084BF2
:101C4000FA681A60074B7A681A60FFF737F9FFF7EE
:101C5000F9FE1837BD4680BDEBA00EEA2C07001038
:101C6000640600106806001080B586B000AFF8600A
:101C7000B9607A6001F026FF0346124A83FB020135
:101C80005A189111DA178A1A462101FB02F29A1AA0
:101C90001346BB8202E0FB8A0133FB82FA8ABB8ACD
:101CA0009A42F8D3084BBA681A60084BFA681A606F
:101CB000074B7A681A60FFF701F9FFF731FF183711
:101CC000BD4680BDEBA00EEA2C0700106406001094
:101CD0006806001080B582B000AF114B7B60114BDD
:101CE0003B6007E03B681A1D3A607A68111D796015
:101CF00012681A603A680C4B9A42F3D30B480C49AD
:101D00004FF000028842B8BF40F8042BFFF6FAAF4C
:101D1000FEF760FAFEF7F4FF0837BD4680BD00BF4E
:101D2000A83E0000000000106406001064060010C9
:101D30004C08001080B400AFFEE700BF80B483B051
:101D400000AF78603960FEE780B487B000AF13461B
:101D50000246FA710A46BA717B71BB797B61FB79E5
:101D60005B003B61184BFB607B690F2B05D97B69DE
:101D7000103B7B613B6901333B613B699B00FA6827
:101D800013443A699200F9680A4411687A6952006A
:101D9000032000FA02F2D2430A401A603B699B001A
:101DA000FA6813443A699200F9680A44116878792C
:101DB0007A69520000FA02F20A431A601C37BD46E3
:101DC0005DF8047B704700BF00C0024080B487B05C
:101DD00000AF13460246FA710A46BA717B71BB79AD
:101DE0007B61FB795B003B61184BFB607B690F2BD0
:101DF00005D97B69103B7B613B6901333B613B69E2
:101E00009B00FA6813443A699200F9680A44116821
:101E10007A695200032000FA02F2D2430A401A60A3
:101E20003B699B00FA6813443A699200F9680A44D6
:101E3000116878797A69520000FA02F20A431A604E
:101E40001C37BD465DF8047B704700BF40C00240B0
:101E500080B485B000AF13460246FA710A46BA71E3
:101E60007B71154BFB607B79012B0FD1FB799B00BC
:101E7000FA681344FA799200F9680A441168BA7949
:101E8000012000FA02F20A431A600FE0FB799B007E
:101E9000FA681344FA799200F9680A441168BA7929
:101EA000012000FA02F2D2430A401A601437BD46FC
:101EB0005DF8047B704700BF68C0024080B582B007
:101EC00000AF78607B6819787B685A787B689B786C
:101ED000084611461A46FFF737FF7B6819787B687A
:101EE0005A787B68DB78084611461A46FFF76EFF82
:101EF0007B6819787B685A787B681B79084611469D
:101F00001A46FFF7A5FF0837BD4680BD80B500AF74
:101F100000F01AF880BD00BF80B500AF034800F0A4
:101F200059F8024B1B78184680BD00BF30070010DF
:101F300080B582B000AF0346FB71FB79184600F014
:101F400059F80837BD4680BD80B500AF00F028F8CD
:101F500000F002F880BD00BF80B584B000AF07F18B
:101F600008031846FEF75AFC4FF41643BB6007F10E
:101F700008030A481946FEF7DFFA3B1D1846FEF72C
:101F800045FE3B1D05481946FEF794FD0348012117
:101F9000FEF752FE1037BD4680BD00BF00C00040B6
:101FA00080B582B000AF0123BB7000233B710023DA
:101FB000FB7002237B7000233B703B461846FFF703
:101FC0007DFF03237B703B461846FFF777FF0837FA
:101FD000BD4680BD80B582B000AF786004487968A6
:101FE00001220123FEF70AFD0837BD4680BD00BF70
:101FF00000C0004080B582B000AF0346FB71FB1DFE
:102000000448194601220123FEF784FC0837BD4627
:1020100080BD00BF00C0004080B500AF034B1B680F
:10202000002019460122FEF7FBFE80BD04000010CF
:1020300080B500AF034B1B6800201946FEF702FF76
:1020400080BD00BF0400001080B500AF034B1B68CB
:1020500000201946FEF704FF80BD00BF04000010F9
:1020600080B582B000AFFFF757FF0346FB71FB79E5
:10207000AE2B25D0AE2B04DC442B09D0452B0FD042
:102080002EE0F12B24D0F22B26D0EA2B10D027E023
:102090001748082100F0C6F8154800F067F824E05A
:1020A0001348082100F0BEF8114800F075F81CE054
:1020B0000F48102100F0B6F80D4800F09BF814E02E
:1020C0000B48102100F0AEF8094800F07BF80CE056
:1020D000074800F039F808E0054800F00DF804E082
:1020E0000448082100F0BEF800BF0837BD4680BD97
:1020F000B4070010843E000080B584B000AF786063
:10210000FFF796FF0023FB600023FB600EE0FB68F7
:102110007A6813441B785AB20A49FB680B441B784F
:102120009A4200D005E0FB680133FB60FB68072B97
:10213000EDDDFFF789FF7868082100F093F810378C
:10214000BD4680BD0800001080B582B000AF786049
:10215000FFF76EFF0448082100F084F8FFF774FFD2
:102160000837BD4680BD00BF8C3E000080B582B000
:1021700000AF7860FFF75CFF06487968002200F046
:10218000FDF8FFF761FF7868082100F06BF8083769
:10219000BD4680BD7C3E000080B582B000AF786057
:1021A000FFF746FF06487968012200F0E7F87868F3
:1021B000082100F057F8FFF747FF0837BD4680BDFC
:1021C0007C3E000080B582B000AF7860FFF730FF42
:1021D00078680649064AFFF711FD0548102100F00E
:1021E00041F8FFF731FF0837BD4680BD6C3E000067
:1021F0003407001080B582B000AF7860FFF718FF99
:1022000078680649064AFFF72FFD0548102100F0BF
:1022100029F8FFF719FF0837BD4680BD6C3E000066
:102220003407001090B585B000AF786039607B68E6
:10223000002B00D112E00023FB600023FB6009E0CB
:10224000FB687A68D418FFF767FE03462370FB68C3
:102250000133FB60FA683B689A42F1D31437BD46FC
:1022600090BD00BF80B584B000AF786039607B68F6
:10227000002B00D112E00023FB600023FB6009E08B
:10228000FB687A6813441B781846FFF751FEFB6819
:102290000133FB60FA683B689A42F1D31037BD46C0
:1022A00080BD00BF80B485B000AF78600B46FB7086
:1022B000FC23BB73FB78DB087B73FB7803F007031D
:1022C0003B73BA7B3B7B42FA03F3FB72BA7B3B7BEB
:1022D000C3F1080302FA03F3BB727B7B7A681344F1
:1022E0001A78FB7A1340DBB21A463B7B02FA03F3FF
:1022F000FB73BB7A002B12D07B7B01337A681344CB
:102300001A78BB7A1340DBB21A463B7BC3F1080351
:1023100042FA03F3DAB2FB7B1343DBB2FB73FB7BC2
:102320009B08FB73FB7B18461437BD465DF8047BA6
:10233000704700BF80B487B000AFF860B960134643
:10234000FB710023FB7510E0FB7DFA681344FA7DF6
:10235000F9680A441178FA7DB868024412784A4054
:10236000D2B21A70FB7D0133FB75FA7DFB799A427C
:10237000EAD31C37BD465DF8047B7047B0B592B018
:1023800000AFF860B9601346FB71584B07F12C049D
:10239000186859689A68DB680FC4FB683B64B868C2
:1023A00000F064FB386C00F0E3FE002387F8473050
:1023B00091E0FB79002B0ED14D4801F067FA97F8B8
:1023C000473007F14802134413F81C3C012B02D993
:1023D000474801F05BFA07F114034548194601F03C
:1023E000C7F8FB79012B10D1414801F0DDFA97F8CD
:1023F0004730C3F10F0307F14802134413F81C3CA4
:10240000012B02D93A4801F0CFFA07F124033948E9
:10241000194600F073FA07F1140207F1240310467D
:1024200019460622FFF786FF002387F8463028E08A
:1024300097F8464097F846202F4B53F8225097F8CC
:1024400046301A46520013445B00DBB207F1140217
:1024500010461946FFF726FF03462B441A7807F16A
:102460004803234403F82C2C97F8462007F11C035B
:102470001046194600F044F897F84630013387F8C3
:10248000463097F84630072BD2D9002387F84630DC
:1024900018E097F84630194AD35C87F83F3097F830
:1024A000463097F846201349895C144AD15497F86E
:1024B0004630104A97F83F10D15497F84630013310
:1024C00087F8463097F84630032BE2D997F8473023
:1024D000013387F8473097F847300F2B7FF669AF05
:1024E000B86800F025FC4837BD46B0BD943E0000FA
:1024F0004008001048080010140200103C080010AA
:1025000080B483B000AF03463960FB71FB79072BC1
:1025100000F2ED8101A252F823F000BF3D2500003A
:10252000A32500001D260000972600000D270000AF
:1025300081270000FB270000752800008F4B5B7887
:10254000DAB23B681B7803F008031B01DBB253408F
:10255000DBB2DAB2894B5A70884B9B78DAB23B68AF
:102560001B7803F004035B01D9B23B681B78DBB234
:1025700003F00203DBB20B43DBB25340DBB2DAB24F
:102580007E4B9A707D4BDB78DAB23B681B7803F0A8
:1025900001035B00DBB25340DBB2DAB2774BDA7097
:1025A000A5E1764B1B78DAB23B6801331B7803F068
:1025B00002035B01DBB25340DBB2DAB26F4B1A703D
:1025C0006E4B5B78DAB23B6801331B78DBB203F009
:1025D0000803DBB25340DBB2DAB2684B5A70674B88
:1025E0009B78DAB23B6801331B7803F001039B014F
:1025F000DBB25340DBB2DAB2604B9A705F4BDB78F0
:10260000DAB23B6801331B7803F004039B00DBB2B2
:102610005340DBB2DAB2594BDA7068E1574B1B78A2
:10262000DAB23B6802331B7803F001039B00DBB294
:102630005340DBB2DAB2514B1A70504B5B78DAB2CE
:102640003B6802331B7803F004039B10DBB253405A
:10265000DBB2DAB2494B5A70484B9B78DAB23B682E
:1026600002331B7803F00803DB10DBB25340DBB20C
:10267000DAB2424B9A70414BDB78DAB23B680233F4
:102680001B7803F002035B00DBB25340DBB2DAB22B
:102690003A4BDA702BE1394B1B78DAB23B680333E3
:1026A0001B78DB01DBB25340DBB2DAB2334B1A707A
:1026B000324B5B78DAB23B6803331B7803F00203DA
:1026C0005B01DBB25340DBB2DAB22C4B5A702B4BBE
:1026D0009B78DAB23B6803331B7803F004039B005A
:1026E000DBB25340DBB2DAB2244B9A70234BDB7877
:1026F000DAB23B6803331B7803F00803DB00DBB27C
:102700005340DBB2DAB21D4BDA70F0E01B4B1B78A2
:10271000DAB23B6804331B7803F001035B01D9B2E2
:102720003B6804331B7803F00803DB10DBB20B4378
:10273000DBB25340DBB2DAB2104B1A700F4B5B784E
:10274000DAB23B6804331B78DBB203F00403DBB27C
:102750005340DBB2DAB2094B5A70084BDB78DAB27D
:102760003B6804331B7803F002039B01DBB2534048
:10277000DBB2DAB2014BDA70B9E000BF3C080010FE
:102780005D4B1B78DAB23B6805331B7803F0080316
:102790005B00DBB25340DBB2DAB2574B1A70564BD8
:1027A0005B78DAB23B6805331B7803F002031B0148
:1027B000DBB25340DBB2DAB24F4B5A704E4B9B78D0
:1027C000DAB23B6805331B7803F001035B01DBB22F
:1027D0005340DBB2DAB2484B9A70474BDB78DAB23F
:1027E0003B6805331B7803F004035B00DBB2534006
:1027F000DBB2DAB2404BDA7079E03F4B1B78DAB2E9
:102800003B6806331B7803F001035B00DBB25340E7
:10281000DBB2DAB2384B1A70374B5B78DAB23B680E
:1028200006331B7803F004039B00DBB25340DBB29A
:10283000DAB2314B5A70304B9B78DAB23B680633D0
:102840001B7803F002035B00DBB25340DBB2DAB269
:10285000294B9A70284BDB78DAB23B6806331B7839
:1028600003F00803DB10DBB25340DBB2DAB2224BD9
:10287000DA703CE0204B1B78DAB23B6807331B78F8
:10288000DBB203F00803DBB25340DBB2DAB21A4B1F
:102890001A70194B5B78DAB23B6807331B78DBB2EE
:1028A00003F00203DBB25340DBB2DAB2124B5A70D0
:1028B000114B9B78DAB23B6807331B7803F00103B6
:1028C000DB00DBB25340DBB2DAB20B4B9A700A4B3F
:1028D000DB78DAB23B6807331B7803F00403DB00D4
:1028E000DBB25340DBB2DAB2034BDA7000BF0C3715
:1028F000BD465DF8047B70473C08001080B483B08F
:1029000000AF786039607B6803331B78DB01DAB293
:102910007B681B7803F0F8035B10DBB21343DAB279
:102920007B681B7803F01803DB10DBB21343DBB2C8
:10293000DAB23B681A703B6801337A681278520148
:10294000D1B27A680132127802F08002D210D2B28B
:102950000A43D1B27A68127802F00102D200D2B2F0
:102960000A43D1B27A68013212785209D2B2D2B295
:102970000A43D2B2D2B21A703B6802337A6801328B
:10298000127802F01802D200D1B27A6801321278BD
:1029900002F01F025200D2B20A43D1B27A68023268
:1029A0001278D209D2B2D2B20A43D2B2D2B21A70DB
:1029B0003B6803337A6801321278D201D1B27A6867
:1029C0000232127802F0F8025210D2B20A43D1B2A7
:1029D0007A680232127802F01802D210D2B20A4398
:1029E000D2B2D2B21A703B6804337A6802321278DB
:1029F0005201D1B27A680332127802F08002D2100A
:102A0000D2B20A43D1B27A680232127802F00102DD
:102A1000D200D2B20A43D1B27A6803321278520994
:102A2000D2B2D2B20A43D2B2D2B21A703B680533E4
:102A30007A680332127802F01802D200D1B27A68B2
:102A40000332127802F01F025200D2B20A43D1B20E
:102A50007A681278D209D2B2D2B20A43D2B2D2B2D2
:102A60001A700C37BD465DF8047B704780B485B0A2
:102A700000AF78607D4B0022DA707C4BDA787B4BBC
:102A80009A707A4B9A78794B5A70784B5A78774B80
:102A90001A70764B1A78764BDA70754BDA78744B7D
:102AA0009A70734B9A78724B5A70714B5A78704B7C
:102AB0001A700023FB732EE1FB7B012B2AD86C4B91
:102AC0001B78DAB2FB7BC3F1070379680B441B78F0
:102AD00003F04001FB7BC3F1010301FA03F3DBB216
:102AE0001343DBB2DAB2624B1A70604BDB78DAB2B6
:102AF000FB7B79680B441B7803F00201FB7BC3F17D
:102B0000010341FA03F3DBB21343DBB2DAB2574BF2
:102B1000DA7027E0564B1B78DAB2FB7BC3F1070370
:102B200079680B441B7803F04001FB7B013B41FAC1
:102B300003F3DBB21343DBB2DAB24D4B1A704B4BEB
:102B4000DB78DAB2FB7B79680B441B7803F0020177
:102B5000FB7B013B01FA03F3DBB21343DBB2DAB2D6
:102B6000424BDA70FB7B032B2AD8414B5B78DAB2FD
:102B7000FB7BC3F1070379680B441B7803F010015A
:102B8000FB7BC3F1030301FA03F3DBB21343DBB2B4
:102B9000DAB2374B5A70354B9B78DAB2FB7B7968E7
:102BA0000B441B7803F00801FB7BC3F1030341FADC
:102BB00003F3DBB21343DBB2DAB22C4B9A7027E09B
:102BC0002B4B5B78DAB2FB7BC3F1070379680B44CC
:102BD0001B7803F01001FB7B033B41FA03F3DBB2EC
:102BE0001343DBB2DAB2224B5A70204B9B78DAB235
:102BF000FB7B79680B441B7803F00801FB7B033BEC
:102C000001FA03F3DBB21343DBB2DAB2174B9A706B
:102C1000FB7B052B2ED8164B9B78DAB2FB7BC3F1DE
:102C2000070379680B441B7803F00401FB7BC3F1B5
:102C3000050301FA03F3DBB21343DBB2DAB20C4B48
:102C40009A700A4B5B78DAB2FB7B79680B441B788D
:102C500003F02001FB7BC3F1050341FA03F3DBB270
:102C60001343DBB2DAB2014B5A702BE04808001074
:102C70003C0800102C4B9B78DAB2FB7BC3F10703B6
:102C800079680B441B7803F00401FB7B053B41FA98
:102C900003F3DBB21343DBB2DAB2234B9A70234B5C
:102CA0005B78DAB2FB7B79680B441B7803F0200178
:102CB000FB7B053B01FA03F3DBB21343DBB2DAB271
:102CC0001A4B5A70184BDB78DAB2FB7B79680B44ED
:102CD0001B7803F00101FB7B01FA03F3DBB2134322
:102CE000DBB2DAB2104BDA70104B1B78DAB2FB7B36
:102CF000C3F1070379680B441B7803F08001FB7B69
:102D000041FA03F3DBB21343DBB2DAB2074B1A70BA
:102D1000FB7B0133FB73FB7B072B7FF6CDAE1437B8
:102D2000BD465DF8047B70473C0800104808001061
:102D300080B483B000AF7860A74B1B78DB01DAB2B8
:102D4000A64B1B7803F001039B01DBB21343DAB2FD
:102D5000A14B5B7803F001035B01DBB21343DAB2F2
:102D60009E4B5B7803F001031B01DBB21343DAB225
:102D7000994B9B7803F00103DB00DBB21343DAB21B
:102D8000964B9B7803F001039B00DBB21343DAB24E
:102D9000914BDB7803F001035B00DBB21343DAB243
:102DA0008E4BDB78DBB203F00103DBB21343DBB203
:102DB000DAB27B681A707B680133874A127802F0B6
:102DC00002029201D1B2854A127802F00202520147
:102DD000D2B20A43D1B2804A527802F00202120102
:102DE000D2B20A43D1B27D4A527802F00202D20036
:102DF000D2B20A43D1B2784A927802F0020292002B
:102E0000D2B20A43D1B2754A927802F0020252005D
:102E1000D2B20A43D1B2704AD278D2B202F00202E0
:102E2000D2B20A43D1B26D4AD27802F002025210F5
:102E3000D2B20A43D2B2D2B21A707B680233664A67
:102E4000127802F004025201D1B2644A127802F000
:102E500004021201D2B20A43D1B25F4A527802F0A0
:102E60000402D200D2B20A43D1B25C4A527802F0D4
:102E700004029200D2B20A43D1B2574A927802F0C9
:102E800004025200D2B20A43D1B2544A9278D2B26A
:102E900002F00402D2B20A43D1B24F4AD27802F011
:102EA00004025210D2B20A43D1B24C4AD27802F094
:102EB00004029210D2B20A43D2B2D2B21A707B6824
:102EC0000333454A127802F008021201D1B2434A94
:102ED000127802F00802D200D2B20A43D1B23E4ABE
:102EE000527802F008029200D2B20A43D1B23B4AB1
:102EF000527802F008025200D2B20A43D1B2364AE6
:102F00009278D2B202F00802D2B20A43D1B2334A66
:102F1000927802F008025210D2B20A43D1B22E4A7D
:102F2000D27802F008029210D2B20A43D1B22B4AF0
:102F3000D27802F00802D210D2B20A43D2B2D2B290
:102F40001A707B680433244A127802F01002D2000F
:102F5000D1B2224A127802F010029200D2B20A4391
:102F6000D1B21D4A527802F010025200D2B20A4386
:102F7000D1B21A4A5278D2B202F01002D2B20A4347
:102F8000D1B2154A927802F010025210D2B20A431E
:102F9000D1B2124A927802F010029210D2B20A43D1
:102FA000D1B20D4AD27802F01002D210D2B20A4346
:102FB000D1B20A4AD27802F010021211D2B20A43F8
:102FC000D2B2D2B21A707B680533034A127802F08B
:102FD0002002920004E000BF3C08001048080010E6
:102FE000D1B2614A127802F020025200D2B20A43F2
:102FF000D1B25E4A5278D2B202F02002D2B20A4373
:10300000D1B2594A527802F020025210D2B20A4389
:10301000D1B2564A927802F020029210D2B20A43FC
:10302000D1B2514A927802F02002D210D2B20A43B1
:10303000D1B24E4AD27802F020021211D2B20A4323
:10304000D1B2494AD27802F020025211D2B20A43D8
:10305000D2B2D2B21A707B680633444A127802F0B8
:1030600040025200D1B2404A1278D2B202F040027D
:10307000D2B20A43D1B23D4A527802F04002521015
:10308000D2B20A43D1B2384A527802F040029210CA
:10309000D2B20A43D1B2354A927802F04002D2103D
:1030A000D2B20A43D1B2304A927802F040021211F1
:1030B000D2B20A43D1B22D4AD27802F04002521164
:1030C000D2B20A43D1B2284AD27802F04002921119
:1030D000D2B20A43D2B2D2B21A707B680733234A03
:1030E0001278D2B222F07F02D1B21F4A127802F0D7
:1030F00080025210D2B20A43D1B21C4A527802F076
:1031000080029210D2B20A43D1B2174A527802F02A
:103110008002D210D2B20A43D1B2144A927802F09D
:1031200080021211D2B20A43D1B20F4A927802F051
:1031300080025211D2B20A43D1B20C4AD27802F0C4
:1031400080029211D2B20A43D1B2074AD278D20990
:10315000D2B2D2B20A43D2B2D2B21A700C37BD4642
:103160005DF8047B704700BF480800103C08001061
:1031700080B483B000AF78607B6807331B78DBB224
:1031800023F07F03DAB27B6806331B7803F08003F9
:103190005B10DBB21343DAB27B6805331B7803F0B4
:1031A00080039B10DBB21343DAB27B6804331B78D5
:1031B00003F08003DB10DBB21343DAB27B68033326
:1031C0001B7803F080031B11DBB21343DAB27B6878
:1031D00002331B7803F080035B11DBB21343DAB2D6
:1031E0007B6801331B7803F080039B11DBB2134330
:1031F000DAB27B681B78DB09DBB2DBB21343DBB2EC
:10320000DAB2AD4B1A707B6807331B7803F04003CA
:103210005B00DAB27B6806331B78DBB203F0400355
:10322000DBB21343DAB27B6805331B7803F040034B
:103230005B10DBB21343DAB27B6804331B7803F014
:1032400040039B10DBB21343DAB27B6803331B7875
:1032500003F04003DB10DBB21343DAB27B680233C6
:103260001B7803F040031B11DBB21343DAB27B6817
:1032700001331B7803F040035B11DBB21343DAB276
:103280007B681B7803F040039B11DBB21343DBB276
:10329000DAB2894B5A707B6807331B7803F020033E
:1032A0009B00DAB27B6806331B7803F020035B00D7
:1032B000DBB21343DAB27B6805331B78DBB203F071
:1032C0002003DBB21343DAB27B6804331B7803F0CC
:1032D00020035B10DBB21343DAB27B6803331B7845
:1032E00003F020039B10DBB21343DAB27B68023396
:1032F0001B7803F02003DB10DBB21343DAB27B68E8
:1033000001331B7803F020031B11DBB21343DAB245
:103310007B681B7803F020035B11DBB21343DBB245
:10332000DAB2654B9A707B6807331B7803F01003A1
:10333000DB00DAB27B6806331B7803F010017B6890
:1033400007331B7803F002030B439B00DBB21343EC
:10335000DAB27B6805331B7803F010017B68063313
:103360001B7803F002030B435B00DBB21343DAB2BA
:103370007B6804331B78DBB203F01003D9B27B689F
:1033800005331B78DBB203F00203DBB20B43DBB285
:103390001343DAB27B6804331B7803F002035B103B
:1033A000DBB21343DBB2DAB2434BDA707B68033330
:1033B0001B7803F002039B01DAB27B6802331B78AF
:1033C00003F002035B01DBB21343DAB27B68013323
:1033D0001B7803F002031B01DBB21343DAB27B68F4
:1033E0001B7803F00203DB00DBB21343DAB27B6825
:1033F00007331B7803F004035B00DBB21343DAB23C
:103400007B6806331B78DBB203F00403DBB21343A3
:10341000DAB27B6805331B7803F004035B10DBB280
:103420001343DAB27B6804331B7803F004039B1068
:10343000DBB21343DBB2DAB21F4B1A717B68033382
:103440001B7803F004035B01DAB27B6802331B785C
:1034500003F004031B01DBB21343DAB27B680133D0
:103460001B7803F00403DB00DBB21343DAB27B68A2
:103470001B7803F004039B00DBB21343DAB27B68D2
:1034800007331B78DBB203F00803DBB21343DAB275
:103490007B6806331B7803F008035B10DBB2134331
:1034A000DAB27B6805331B7803F008039B10DBB2AC
:1034B0001343DAB202E000BF400800107B68043317
:1034C0001B7803F00803DB10DBB21343DBB2DAB284
:1034D000264B5A717B6803331B7803F008031B01EA
:1034E000DAB27B6802331B7803F00803DB00DBB23F
:1034F0001343DAB27B6801331B7803F008039B00A7
:10350000DBB21343DAB27B681B7803F008035B007D
:10351000DBB21343DAB27B6803331B7803F010038A
:103520005B10DBB21343DAB27B6802331B7803F023
:1035300010039B10DBB21343DAB27B6801331B78B4
:1035400003F01003DB10DBB21343DAB27B681B78A5
:1035500003F010031B11DBB21343DBB2DAB2034BEF
:103560009A710C37BD465DF8047B70474008001027
:1035700080B483B000AF786039607B6801331B781A
:1035800003F004035B01DAB27B6802331B7803F0BB
:1035900080017B681B7803F008030B435B10DBB2F0
:1035A0001343DAB27B6801331B78DBB203F02003EC
:1035B000DBB21343DAB27B6802331B7803F00103FA
:1035C0001B01DBB21343DAB27B681B7803F0A00166
:1035D0007B6803331B7803F010030B431B11DBB232
:1035E0001343DBB2DAB23B681A703B6801337A6886
:1035F0000132127802F002029201D1B27A68127896
:1036000002F004021201D2B20A43D1B27A68023245
:10361000127802F00A029200D2B20A43D1B27A685A
:103620000132127802F040029210D2B20A43D1B2B3
:103630007A680232127802F020007A680132127839
:1036400002F010020243D210D2B20A43D1B27A6819
:10365000127802F010021211D2B20A43D2B2D2B2E0
:103660001A703B6802337A680332127802F0400223
:103670005200D1B27A68127802F001029201D2B2FD
:103680000A43D1B27A680132127802F00102520183
:10369000D2B20A43D1B27A68127802F00202D200A2
:1036A000D2B20A43D1B27A680332127802F0200013
:1036B0007A680232127802F0100210437A680132FE
:1036C000127802F0080202439210D2B20A43D1B239
:1036D0007A68127802F040029211D2B20A43D2B252
:1036E000D2B21A703B6803337A6805321278D2B2CC
:1036F00022F07F02D1B27A6804321278D2B202F09C
:103700000102D2B20A43D1B27A680632127802F0CC
:1037100010007A680532127802F002020243920029
:10372000D2B20A43D1B27A680332127802F00202AE
:103730001201D2B20A43D1B27A680432127802F08E
:1037400008007A680632127802F002020243520040
:10375000D2B20A43D1B27A680332127802F004027C
:103760005210D2B20A43D2B2D2B21A703B680433BA
:103770007A680632127802F020029200D1B27A689A
:103780000532127802F00802D200D2B20A43D1B256
:103790007A680432127802F080029210D2B20A43A0
:1037A000D1B27A680532127802F001021201D2B267
:1037B0000A43D1B27A680532127802F01002521030
:1037C000D2B20A43D1B27A680632127802F080028D
:1037D0005211D2B20A43D1B27A6804321278D2B20C
:1037E00002F00202D0B27A6806321278D2B202F047
:1037F0000102D2B20243D2B20A43D2B2D2B21A709A
:103800003B6805337A680432127802F040025200B5
:10381000D1B27A680632127802F008007A6805326E
:10382000127802F004020243D200D2B20A43D1B2AB
:103830007A680532127802F040007A680432127811
:1038400002F0100210437A680332127802F0080284
:1038500002439210D2B20A43D1B27A680632127889
:1038600002F04002D210D2B20A43D1B27A680332D7
:103870001278D2B202F00102D2B20A43D2B2D2B26C
:103880001A700C37BD465DF8047B704780B485B074
:1038900000AF78607B681B78DB08DBB203F01003B5
:1038A000FB737B6801331B78DB09BB737B681B7878
:1038B0005B00DAB2BB7B1343DBB2DAB27B681A700F
:1038C0007B6802331B78DB09BB737B6801337A6842
:1038D000013212785200D1B2BA7B0A43D2B2D2B2CC
:1038E0001A707B6803331B78DB09BB737B68023378
:1038F0007A68023212785200D1B2BA7B0A43D2B24D
:10390000D2B21A707B6804331B78DB09BB737B6807
:1039100003331B78DB08DBB203F001037B737B68A6
:1039200003337A68033212785200D2B222F01002C6
:10393000D1B2BA7B0A43D1B2FA7B0A43D2B2D2B235
:103940001A707B6805331B78DB09BB737B68043313
:103950007A68043212785200D1B2BA7B0A43D2B2EA
:10396000D2B21A707B6806331B78DB09BB737B68A5
:1039700005337A68053212785200D1B2BA7B0A4315
:10398000D2B2D2B21A707B6806337A6806321278E5
:103990005200D1B27A7B0A43D2B2D2B21A70143733
:1039A000BD465DF8047B704780B485B000AF786099
:1039B0007B6806331B7803F00103DBB2DB00FB738B
:1039C0007B6803331B7803F01003DBB2DB00BB73AF
:1039D0007B6806337A68063212785208D2B2D1B2C6
:1039E0007A6805321278D201D2B20A43D2B2D2B288
:1039F0001A707B6805337A68053212785208D2B2A1
:103A0000D1B27A6804321278D201D2B20A43D2B269
:103A1000D2B21A707B6804337A6804321278520882
:103A2000D2B2D1B27A6803321278D201D2B20A434A
:103A3000D2B2D2B21A707B6803337A68033212783A
:103A40005208D2B2D2B222F00802D1B2FA7B0A43B3
:103A5000D1B27A6802321278D201D2B20A43D2B21B
:103A6000D2B21A707B6802337A6802321278520836
:103A7000D2B2D1B27A6801321278D201D2B20A43FC
:103A8000D2B2D2B21A707B6801337A6801321278EE
:103A90005208D2B2D1B27A681278D201D2B20A43B5
:103AA000D2B2D2B21A707B681B785B08DAB2BB7BE9
:103AB0001343DAB27B681A701437BD465DF8047B95
:103AC000704700BF30B40C4B0C4D1C680C49D4F847
:103AD000A820D4F8AC0005FB02F5A2FB012301FBF2
:103AE000005101320B4443F10003C4E92A2323F0BF
:103AF000004030BC704700BF600600102DF45158E4
:103B00002D7F954C433A5C55736572735C686172A6
:103B100064655C4F6E6544726976655C4465736B81
:103B2000746F705C41534B2D4D5C4E58503137369D
:103B3000385C46575C4E58505F313736385F4445E5
:103B4000535F636C65616E5C6C7063313778785F6E
:103B50006C69625C736F757263655C6C706331373E
:103B600078785F756172742E63000000637C777BE8
:103B7000F26B6FC53001672BFED7AB76CA82C97D69
:103B8000FA5947F0ADD4A2AF9CA472C0B7FD9326FA
:103B9000363FF7CC34A5E5F171D8311504C723C3FE
:103BA0001896059A071280E2EB27B27509832C1A42
:103BB0001B6E5AA0523BD6B329E32F8453D100ED9C
:103BC00020FCB15B6ACBBE394A4C58CFD0EFAAFB80
:103BD000434D338545F9027F503C9FA851A3408F48
:103BE000929D38F5BCB6DA2110FFF3D2CD0C13EC60
:103BF0005F974417C4A77E3D645D197360814FDCF5
:103C0000222A908846EEB814DE5E0BDBE0323A0AD8
:103C10004906245CC2D3AC629195E479E7C8376D5C
:103C20008DD54EA96C56F4EA657AAE08BA78252E81
:103C30001CA6B4C6E8DD741F4BBD8B8A703EB5660A
:103C40004803F60E613557B986C11D9EE1F89811FB
:103C500069D98E949B1E87E9CE5528DF8CA1890DEA
:103C6000BFE6426841992D0FB054BB1652096AD580
:103C70003036A538BF40A39E81F3D7FB7CE3398261
:103C80009B2FFF87348E4344C4DEE9CB547B9432B0
:103C9000A6C2233DEE4C950B42FAC34E082EA166F8
:103CA00028D924B2765BA2496D8BD12572F8F664CF
:103CB00086689816D4A45CCC5D65B6926C7048504A
:103CC000FDEDB9DA5E154657A78D9D8490D8AB00FF
:103CD0008CBCD30AF7E45805B8B34506D02C1E8F28
:103CE000CA3F0F02C1AFBD0301138A6B3A91114164
:103CF0004F67DCEA97F2CFCEF0B4E67396AC74224D
:103D0000E7AD3585E2F937E81C75DF6E47F11A71CA
:103D10001D29C5896FB7620EAA18BE1BFC563E4B03
:103D2000C6D279209ADBC0FE78CD5AF41FDDA833C5
:103D30008807C731B11210592780EC5F60517FA905
:103D400019B54A0D2DE57A9F93C99CEFA0E03B4D34
:103D5000AE2AF5B0C8EBBB3C83539961172B047EA8
:103D6000BA77D626E169146355210C7D8D010204D2
:103D700008102040801B366CD8AB4D9A2F5EBC6378
:103D8000C697356AD4B37DFAEFC5913972E4D3BDD5
:103D900061C29F254A943366CC831D3A74E8CB8D6B
:103DA00001020408102040801B366CD8AB4D9A2FBE
:103DB0005EBC63C697356AD4B37DFAEFC59139729C
:103DC000E4D3BD61C29F254A943366CC831D3A7407
:103DD000E8CB8D01020408102040801B366CD8AB64
:103DE0004D9A2F5EBC63C697356AD4B37DFAEFC592
:103DF000913972E4D3BD61C29F254A943366CC8366
:103E00001D3A74E8CB8D01020408102040801B3657
:103E10006CD8AB4D9A2F5EBC63C697356AD4B37D20
:103E2000FAEFC5913972E4D3BD61C29F254A94333C
:103E300066CC831D3A74E8CB8D0102040810204043
:103E4000801B366CD8AB4D9A2F5EBC63C697356A23
:103E5000D4B37DFAEFC5913972E4D3BD61C29F2519
:103E60004A943366CC831D3A74E8CB00CAFEBABECE
:103E7000DEADBEEF0001020304050607CAFEBABEAE
:103E8000DEADBEEF426164436D640A005665722088
:103E9000322E340001010202020202020102020279
:083EA0000202020143000000D0
:103EA80000E1F505000080006E656D656D6573695C
:103EB800100000000E00040F0D070104020E0F028F
:103EC8000B0D0801030A0A06060C0C0B0509090567
:103ED80000030708040F010C0E0808020D04060968
:103EE80002010B070F050C0B0903070E030A0A0052
:103EF8000506000D0F03010D08040E07060F0B023F
:103F08000308040E090C070002010D0A0C0600093B
:103F1800050B0A05000D0E08070A0B010A03040F1A
:103F28000D040102050B08060C07060C0900030521
:103F3800020E0F090A0D000709000E090603030403
:103F48000F06050A01020D080C05070E0B0C040BE1
:103F5800020F08010D01060A040D090008060F09E1
:103F6800030800070B04010F020E0C03050B0A05DA
:103F78000E02070C070D0D080E0B03050006060FB1
:103F880009000A03010402070802050C0B010C0AC8
:103F9800040E0F090A03060F090000060C0A0B019C
:103FA800070D0D080F09010403050E0B050C020788
:103FB8000802040E020E0C0B0402010C07040A0787
:103FC8000B0D060108050500030F0F0A0D03000974
:103FD8000E080906040B0208010C0B070A010D0E56
:103FE8000702080D0F06090F0C000509060A03044D
:103FF80000050E030C0A010F0A040F020907020C40
:104008000609080500060D01030D040E0E00070B36
:1040180005030B0809040E030F02050C0209080525
:104028000C0F030A070B000E04010A0701060D0016
:104038000B08060D040D0B00020B0E070F040009F8
:1040480008010D0A030E0C030905070C05020A0FE7
:10405800060801060106040B0B0D0D080C010304EC
:10406800070A0E070A090F050600080F000E0502C9
:104078000903020C0D01020F080D0408060A0F03BC
:104088000B0701040A0C090503060E0B0500000EB8
:104098000C09070207020B01040E010709040C0AA8
:1040A8000E08020D000F060C0A090D000F03030588
:1040B8000506080B140000105400001094000010AE
:1040C800D4000010140100105401001094010010D5
:1040D800D4010010000000000000000024050010BA
:1040E8008C050010F405001000000000000000001E
:1040F80000000000000000000000000000000000B8
:10410800000000000000000000000000A43E0000C5
:104118000000000000000000000000000000000097
:104128000000000000000000000000000000000087
:104138000000000000000000000000000000000077
:104148000000000000000000000000000000000067
:104158000000000000000000000000000000000057
:104168000000000000000000000000000000000047
:104178000000000000000000000000000000000037
:1041880001000000000000000E33CDAB34126DE6D4
:10419800ECDE05000B00000000000000000000003D
:1041A8000000000000000000000000000000000007
:1041B80000000000000000000000000000000000F7
:1041C80000000000000000000000000000000000E7
:1041D80000000000000000000000000000000000D7
:044508003802001065
:00000001FF
